:020000040800F2
:100000006808002051140008FD030008FF030008E1
:1000100003040008070400080B04000800000000A7
:100020000000000000000000000000000F040008B5
:100030001104000800000000130400081504000863
:100040006B1400086B1400086B1400086B14000894
:100050006B1400086B1400086B1400086B14000884
:100060006B1400086B1400086B1400086B14000874
:100070006B1400086B1400086B1400086B14000864
:100080006B1400086B1400086B1400086B14000854
:100090006B1400086B1400086B1400086B14000844
:1000A0006B1400086B1400086B1400086B14000834
:1000B0006B1400088B0A0008C50A00086B140008BE
:1000C0006B1400086B1400086B1400086B14000814
:1000D0006B1400081F130008991300086112000830
:1000E0006B1400086B1400086B1400086B140008F4
:1000F0006B1400086B1400086B1400086B140008E4
:100100006B1400086B1400086B1400086B140008D3
:100110006B1400086B1400086B1400086B140008C3
:100120006B1400086B1400086B1400086B140008B3
:1001300000F002F800F090F80AA090E8000C824469
:100140008344AAF10107DA4501D100F085F8AFF246
:10015000090EBAE80F0013F0010F18BFFB1A43F0A5
:1001600001031847205E0000405E0000103A24BFE3
:1001700078C878C1FAD8520724BF30C830C144BF0C
:1001800004680C607047000000230024002500264E
:10019000103A28BF78C1FBD8520728BF30C148BFEA
:1001A0000B6070476E2903F0DD81702903F0298010
:1001B000662905F0EF85652905F0EC85672905F0CE
:1001C000E9856129AFF3008003681B0A28BF41F06D
:1001D0008001692902F00487642902F001877529EA
:1001E00002F0FE866F2902F0B787782902F0F587C2
:1001F000E92903F03D84E42903F03A84F52903F06A
:100200003784EF2902F0B487F82902F0F4870368F5
:10021000DB0928BF41F08001632903F0F4837329CF
:1002200003F0F983E32903F01784F32903F01C8416
:10023000002070471FB503F035FD040000200021A9
:1002400005F0D2F8401C60600020002105F0B6F8EF
:10025000E0601FBD10B510BD03F098FE1146FFF71A
:10026000E9FF00F009F804F017F903B4FFF7F2FF13
:1002700003BC00F0C9FE000000F0CAFC00F04EFE16
:1002800000F0B6FE01204949086000F058FA4FF42A
:10029000165000F0E3FE4FF4E13000F02BFF4FF476
:1002A000165000F077FF472140F2833000F01EFC2B
:1002B000472140F2833000F05AFC40F271210720C0
:1002C00000F074FB00F084FB6EE0394800F002FBA4
:1002D000A8B93748006805F0A6FA05460022354B54
:1002E00005F0DEF8074605F095F80446204605F0CF
:1002F0001DFC05462A460B462FA002F003FE33499B
:10030000204605F016FD0ED200F0E4FC00F0F6FCED
:100310004FF4FA712E4802F095FD4FF4FA712D4812
:1003200002F092FD0DE000F0CBFC00F0F1FC4FF488
:10033000FA71274802F086FD4FF4FA71254802F061
:1003400083FD254A25A126A000F0FBFC30B92248F8
:10035000006805F043FC2549086002E024A000F095
:10036000CDFF2448008805280EDA23480088052898
:100370000ADA4FF47A71164802F064FD4FF47A718C
:10038000144802F061FD09E04FF4FA71104802F0E0
:1003900059FD4FF4FA710F4802F056FD4FF47A7090
:1003A00000F0F9FD00F014FB8FE7000098012142F6
:1003B0000000002000408F40B5B1C7B0B9E2D5D5EC
:1003C000D6B5CEAA25660D0A0000000000007A44CA
:1003D000000C004000040040040000204F4B0000CF
:1003E00041542B434F4C4F520D0A0000080000208F
:1003F000300D0A002200002024000020704700BFBA
:10040000FEE700BFFEE700BFFEE700BFFEE7704764
:1004100070477047704700000CB5002001900090B5
:100420006C48006840F480306A49086000BF694841
:10043000006800F4003000900198401C0190009882
:1004400018B90198B0F5A06FF1D16248006800F4C6
:10045000003010B10120009001E0002000900098D1
:10046000012843D15C48006840F010005A490860F8
:100470000846006820F0030008600846006840F065
:100480000200086053484068524948600846406886
:1004900048600846406840F480604860084640680C
:1004A00020F47C1048600846406840F4E81048603A
:1004B0000846006840F08070086000BF454800684A
:1004C00000F000700028F9D04248406820F0030096
:1004D000404948600846406840F00200486000BF5C
:1004E0003C48406800F00C000828F9D10CBD10B55C
:1004F000FFF792FF10BD10B53648006840F00100CC
:100500003449086008464068344908403149486029
:1005100008460068324908402E49086008460068CD
:1005200020F4802008600846406820F4FE004860FF
:100530004FF41F008860FFF7DAFF4FF00060294991
:10054000086010BD10B5002100200022214B5B681F
:1005500003F00C0121B1042906D0082928D107E0B5
:10056000214B224C236027E01F4B204C236023E0CB
:10057000184B5B6803F47010164B5B6803F4803211
:10058000022303EB904022B9194B4343174C2360DD
:100590000DE0104B5B6803F4003323B1144B43436D
:1005A000124C236003E0104B4343104C236003E0E4
:1005B0000D4B0E4C236000BF00BF064B5B68C3F3BE
:1005C00003130C4CE15C094B1B68CB40074C2360C8
:1005D00010BD000000100240002002400000FFF8A3
:1005E000FFFFF6FE08ED00E000127A000C0000208C
:1005F00000093D001000002038B500240120E74923
:1006000008601020ADF8000004208DF803000320DE
:100610008DF802006946E24800F09AFF0120E149A6
:10062000C1F89401052000F092FCDC488038006895
:100630000443052000F08BFC0020DA49C1F8940146
:100640001020ADF800008DF8030003208DF80200A3
:100650006946D34800F07CFFA0B238BD38B50446E7
:100660001020ADF800008DF8030003208DF8020083
:100670006946CB4800F06CFF0020C849091D08609E
:1006800000251EE004F0800018B10120C349086075
:1006900002E00020C1490860052000F058FC01205C
:1006A000BE49091D0860052000F051FC0020BD492D
:1006B000C1F89401052000F04AFC6006040E681C95
:1006C000C5B2082DDEDBFFF797FFC0B238BD08B515
:1006D0001020ADF800008DF8030003208DF8020013
:1006E0006946AF4800F034FF0120AC490860AD49CD
:1006F000C1F89401052000F02AFC0020A7490860F9
:10070000052000F024FC0020A649C1F8940108BD92
:1007100070B506460D460024FFF7D9FF9420FFF779
:100720009DFF2044C4B23046FFF798FF2044C4B276
:100730002846FFF793FF2044C4B2204670BD38B569
:1007400000240121042001F0BFF92020ADF80000B1
:1007500010208DF8030003208DF8020069469048B0
:1007600000F0F6FE1020ADF800008DF80300032025
:100770008DF8020069468A4800F0EAFE4020ADF894
:10078000000010208DF8030003208DF80200694658
:10079000834800F0DDFE012080490831086081496E
:1007A000C1F894017D490860642000F0F4FB002149
:1007B0000420FFF7ADFF2044C4B238BD08B51020B7
:1007C000ADF800008DF8030003208DF802006946A3
:1007D000734800F0BDFE0020704908600120714997
:1007E000C1F89401052000F0B2FB01206B490860BC
:1007F000052000F0ACFB00206A49C1F894010520F7
:1008000000F0A5FB08BD38B504461020ADF8000087
:100810008DF8030003208DF802006946604800F05F
:1008200097FE04F0010018B101205C49086002E065
:1008300000205A49086001205849091D0860052018
:1008400000F085FB00205749C1F89401012053496D
:100850000860052000F07BFB38BD38B5002410206F
:10086000ADF8000004208DF8030003208DF802008D
:1008700069464B4800F06CFE01204849086000259D
:1008800018E001204549091D0860052000F05FFBC4
:100890004448D0F810012043C4B200203F49091D4C
:1008A0000860052000F053FB072D01DA6006040EF6
:1008B000681CC5B2082DE4DB1020ADF800008DF8EF
:1008C000030003208DF802006946354800F040FE21
:1008D000204638BD2DE9F04FA3B083464FF0000904
:1008E0000024002001908246FFF7F1FE9420FFF7DC
:1008F000B5FE484400F0FF090020FFF7AFFE484472
:1009000000F0FF09FFF7E3FE9520FFF7A7FE48443C
:1009100000F0FF090A2000F03EFB00BF12E0FFF7E5
:100920009CFF02A901F80A00BAF1040F03D10120CB
:10093000FFF769FF02E00020FFF765FF0AF1010001
:1009400000F0FF0ABAF1040FE9DDFFF737FF9DF869
:100950000B4024029DF80A00044324029DF809007C
:10096000044324029DF808000443204605F04EF994
:10097000009005F0DBF807464FF066320A4B04F0B2
:10098000A1FF054604F046FD0190019805F006F927
:10099000CBF80000484623B0BDE8F08F900121421B
:1009A00000080140000021426666F63F70B505462A
:1009B0000C4645F2555001F05DFB284601F05DFB09
:1009C000204601F05DFB01F05EFB01F061FB70BDB4
:1009D00010B501F058FB10BD7FB505460C4601214E
:1009E000022001F07EF8ADF80850ADF80440002078
:1009F000ADF80A00ADF8060001A9384801F02EFC58
:100A000001221146354801F0A0FF1D208DF800009D
:100A100000208DF8010003208DF8020001208DF8E0
:100A20000300684601F0BDFA00212C4801F072FF76
:100A30007FBD7FB505460C460121042001F051F829
:100A4000ADF80850ADF804400020ADF80A00ADF84C
:100A5000060001A9224801F001FC012211462048AC
:100A600001F073FF1E208DF8000003208DF80100B7
:100A70008DF8020001208DF80300684601F091FA1C
:100A80000121174801F046FF7FBD10B50121134831
:100A900002F009FAA8B10121104802F015FA114834
:100AA0000078401C0F490870084600781E2808DBB3
:100AB0000020087001200C4908700021074801F04F
:100AC00029FF10BD10B50121054802F0ECF918B15D
:100AD0000121034802F0F8F910BD000000040040B5
:100AE00000080040200000202100002030B589B01F
:100AF00005460C460121022000F0F3FF01210920E8
:100B000000F0E2FF01213D4800F0F3FD2020ADF8A8
:100B1000200018208DF8230003208DF8220008A95A
:100B2000374800F015FDADF81850ADF8144000201E
:100B3000ADF81A00ADF8160005A9324801F08EFB99
:100B40007020ADF804000120ADF806000020ADF8DB
:100B50000C0001A92B4801F000FC0821294802F0F3
:100B600012F80121274801F0D5FE09B030BD30B59B
:100B700089B005460C460121082000F0B2FF012192
:100B8000042000F0A1FF0120ADF8200018208DF80E
:100B9000230003208DF8220008A91B4800F0D8FC90
:100BA000ADF81850ADF814400020ADF81A00ADF8BB
:100BB000160005A9154801F051FB7020ADF804009E
:100BC0000120ADF806000020ADF80A00ADF80C00D9
:100BD00001A90E4801F07FFB01210C4801F0A6FE9F
:100BE00008210A4801F0C6FF0121084801F092FFE0
:100BF0000121064801F08EFE09B030BD00081A0040
:100C0000000C01400004004000080140000C0040BE
:100C100008B50121082000F057FF4020ADF8000082
:100C200010208DF8030003208DF8020069463D482E
:100C300000F08EFC40213B4800F037FD0420ADF869
:100C4000000010208DF8030003208DF80200694693
:100C5000344800F07DFC0421324800F026FD0121DB
:100C6000102000F031FF0120ADF8000010208DF8B9
:100C7000030003208DF8020069462B4800F068FC51
:100C80000121294800F011FD0220ADF800001020DC
:100C90008DF8030003208DF802006946224800F019
:100CA00057FC0221204800F000FD08BD10B50121CD
:100CB0001D4800F0FAFC02211B4800F0F6FC10BDB4
:100CC00010B50121184800F0F2FC0221164800F08E
:100CD000ECFC10BD10B50121134800F0E6FC022128
:100CE000114800F0E4FC10BD10B504210D4800F0DF
:100CF000DCFC40210B4800F0D8FC10BD10B50421ED
:100D0000084800F0D4FC4021064800F0CEFC10BD9D
:100D100010B50421034800F0C8FC4021014800F050
:100D2000C6FC10BD000C01400010014010B5734816
:100D3000818C02F05EFB00207049888481F82600D7
:100D400010BD2DE9F74FA6B014464FF4967B002551
:100D50006B4A07CA0FAB07C300200B900C900D9095
:100D60000E9067480C3000680A90002006900790AB
:100D700008900990624810300068059000200190AA
:100D80000290039004905E4814300068009026980A
:100D900000F050FA7AE0594890F82600012872D104
:100DA0005648279902F013FB002862D03D21534892
:100DB00002F003FB0546002D55D00E22A91C12A8F7
:100DC00002F039FB12A804F07DFA074604F0FCFC9F
:100DD000206012A800F092FA4AA000F08FFA0AA947
:100DE000284602F0F4FA06460322B11C21A802F0BC
:100DF00022FB21A804F066FA074604F0E5FC206017
:100E000005A9304602F0E3FA8146032209F1020106
:100E10001CA802F010FB1CA804F054FA074604F0CA
:100E2000D3FC20606946484602F0D1FA824603228C
:100E30000AF1020117A802F0FEFA17A804F042FA1C
:100E4000074604F0C1FC206021A802F0A9FA2E494F
:100E500008801CA802F0A4FA2C49088017A802F008
:100E60009FFA2B490880FFF761FF002029B0BDE8F9
:100E7000F08F28A1214802F0AAFA18B1FFF756FF17
:100E80000220F3E7FFE7012000F085F8BBF1000046
:100E9000ABF101011FFA81FB7FF47DAFFFF746FF45
:100EA0000120E3E770B504460D464FF496762046E0
:100EB00000F0C0F919E0114890F82600012811D17E
:100EC00029460E4802F083FA18B1FFF72FFF0020E1
:100ED00070BD10A1094802F07AFA18B1FFF726FF99
:100EE0000220F5E7012000F056F8301EA6F10101BE
:100EF0008EB2E0D1FFF71AFF0120E9E74C00002095
:100F0000945E00080D0A000022000020240000204A
:100F1000260000204552524F525F330010B56FF04B
:100F2000040001F088F82E4800682E49B0FBF1F06B
:100F30002D4908700846007800EB4001C1EBC01055
:100F40004FF6FF7101EAC0002849088010BD014634
:100F5000254A12784A434FF0E0235A6100229A61F1
:100F60001A46126942F001021A6100BF4FF0E022F6
:100F7000106900F001021AB100F48032002AF5D0A5
:100F80004FF0E022126922F001024FF0E0231A61D3
:100F900000229A6170470146144A12884A434FF072
:100FA000E0235A6100229A611A46126942F0010256
:100FB0001A6100BF4FF0E022106900F001021AB17F
:100FC00000F48032002AF5D04FF0E022126922F0BE
:100FD00001024FF0E0231A6100229A61704700007D
:100FE0000C00002000127A00280000202A000020B7
:100FF00010B54FF4A06000F0CFFF10BD30BF7047B8
:1010000072B6704762B6704700BF704700BFF84ABB
:10101000128802F04002002AF9D0C2B2F44B1B1D24
:101020001A80704710B5044600BF8021F14800F0D7
:1010300059FF0028F9D02146EE4800F0E5FE10BD2A
:1010400010B5044600BF8021E94800F04BFF00289E
:10105000F9D02146E64800F0D7FE10BD10B586B0A5
:101060000446012144F2040000F02EFD4FF400700C
:10107000ADF8140003208DF8160018208DF8170025
:1010800005A9DD4800F064FA4FF48060ADF8140063
:1010900004208DF8170005A9D74800F059FA25203B
:1010A0008DF8000003208DF801008DF8020001206A
:1010B0008DF80300684600F074FF01940020ADF83D
:1010C0000800ADF80A00ADF80C00ADF810000C20D7
:1010D000ADF80E0001A9C74800F09DFD012240F2C5
:1010E0002551C44800F02FFE0121C24800F01FFE28
:1010F00006B010BD10B586B004460121042000F0F2
:10110000E3FC0121480400F0ECFCB94800F040FD8C
:101110000420ADF8140003208DF8160018208DF877
:10112000170005A9B44800F013FA0820ADF8140020
:1011300004208DF8170005A9AF4800F009FA262011
:101140008DF8000000208DF8010001208DF80200CC
:101150008DF80300684600F024FF01940020ADF8EC
:101160000800ADF80A00ADF80C00ADF810000C2036
:10117000ADF80E0001A99E4800F04DFD012240F29D
:1011800025519B4800F0DFFD0121994800F0CFFD7B
:1011900006B010BD10B586B004460121092000F04C
:1011A00093FC0121880400F09CFC4FF48060ADF8B2
:1011B000140003208DF8160018208DF8170005A9DB
:1011C0008E4800F0C5F94FF40060ADF814004820D7
:1011D0008DF8170005A9894800F0BAF927208DF885
:1011E000000002208DF8010003208DF8020001208C
:1011F0008DF80300684600F0D4FE01940020ADF89D
:101200000800ADF80A00ADF80C00ADF810000C2095
:10121000ADF80E0001A97A4800F0FDFC012240F271
:101220002551774800F08FFD0121754800F07FFDC2
:1012300006B010BD70B5044600250DE000BF40218A
:101240006F4800F04FFE0028F9D028466A1CD5B23E
:10125000215C6B4800F0D8FD605D0028EED170BDC8
:1012600010B540F22551664800F052FE10B36448B4
:10127000001D0088C1B26348828C808C401C614B89
:10128000988418468154808C401E1946085C0A28B0
:1012900003D00846808C232808D100205949898C26
:1012A000584A50540120114681F826002021544804
:1012B00000F025FE10BD30B5C1B0054600242A4619
:1012C0004FF4807101A8009B01F002FE0EE0204661
:1012D000621CD4B201AA115C494800F095FD00BF20
:1012E0008021474800F0FEFD0028F9D0FF2C03DAEA
:1012F00001A8005D0028EAD141B030BD0BE000BF7D
:101300003C49098801F040010029F9D00178394AA7
:10131000121D1180401C01780029F0D1704710B5D2
:1013200040F22551334800F0F3FD10B3314800F08E
:101330006FFDC4B23448008800F40040C8B9324898
:10134000008800F4804060B10A2C03D000202E49B0
:10135000088020E02C48008840F400402A4908809A
:1013600019E00D2C06D12848008840F48040264919
:10137000088010E024480088C0F30D0023490C5475
:1013800021480088401C2049088008460088C7285A
:1013900001DD0020088010BD10B540F22551144831
:1013A00000F0B6FDB0B1124800F032FDC4B21048F2
:1013B00000F02EFDC1B2164802780078401C144B94
:1013C00018701448815418460078632802DD002004
:1013D0001946087010BD30B5C1B0054600242A4634
:1013E0004FF4807101A8009B01F072FD23E0000022
:1013F000004400400038014000080140000C01405A
:10140000004800404C000020360000203C01002035
:1014100034000020740000202046621CD4B201AACF
:10142000115C094800F0F0FC00BF8021074800F083
:1014300059FD0028F9D0FF2C03DA01A8005D00282F
:10144000EAD141B030BD0000003801400044004006
:101450000948804709480047FEE7FEE7FEE7FEE748
:10146000FEE7FEE7FEE7FEE7FEE7FEE70448054984
:10147000054A064B70470000F704000831010008D8
:10148000680200206808002068040020680400202A
:1014900010B50446CC48844208D10121042000F054
:1014A0002DFB0021042000F029FB46E0C7488442C0
:1014B00008D10121082000F021FB0021082000F0C4
:1014C0001DFB3AE0C248844208D10121102000F0FF
:1014D00015FB0021102000F011FB2EE0BD488442D6
:1014E00008D10121202000F009FB0021202000F07C
:1014F00005FB22E0B848844208D10121402000F0D9
:10150000FDFA0021402000F0F9FA16E0B3488442C9
:1015100008D10121802000F0F1FA0021802000F0A4
:10152000EDFA0AE0AE48844207D10121801500F0AF
:10153000E5FA0021A01500F0E1FA10BD10B5012177
:10154000084600F0DBFA0021012000F0D7FA10BDB8
:101550002DE9F0410246002500260020002300244A
:10156000002791F803C00CF00F0591F803C00CF0B0
:10157000100CBCF1000F03D091F802C04CEA050535
:1015800091F800C0BCF1000F31D0146800202BE0AE
:101590004FF0010C0CFA00F3B1F800C00CEA03069E
:1015A0009E4220D183004FF00F0C0CFA03F7BC438E
:1015B00005FA03FC4CEA040491F803C0BCF1280FBF
:1015C00006D14FF0010C0CFA00FCC2F814C00AE07E
:1015D00091F803C0BCF1480F05D14FF0010C0CFA93
:1015E00000FCC2F810C0401C0828D1D31460B1F828
:1015F00000C0BCF1FF0F34DD546800202EE000F184
:10160000080C4FF0010808FA0CF3B1F800C00CEA1E
:1016100003069E4221D183004FF00F0C0CFA03F712
:10162000BC4305FA03FC4CEA040491F803C0BCF186
:10163000280F05D100F1080C08FA0CF8C2F8148044
:1016400091F803C0BCF1480F07D100F1080C4FF02E
:10165000010808FA0CF8C2F81080401C0828CED304
:101660005460BDE8F0814FF6FF7101800221817066
:101670000421C17070470246002093680B400BB1F3
:10168000012000E0002070470146886880B2704762
:1016900002460020D3680B400BB1012000E000207F
:1016A00070470146C86880B2704701617047416168
:1016B00070470AB1016100E041617047C160704745
:1016C0004FF480320A43826181618261826982695A
:1016D000704702460020434B18684FF6807318404D
:1016E00040EA021008433F4B186070473E49C8610A
:1016F0007047F0B50A46002300240021002500F0C1
:101700000046B6F1004F02D1364EF16901E0354E88
:101710007168C0F3034583B200F44016B6F5401F6C
:1017200008D121F070612F4E766826F070662D4F3B
:101730007E6012E000F48016B6F5801F06D1032605
:1017400006FA05F4A14341F0706106E0460D36014A
:1017500003FA06F6B14341F0706122B1460D36013D
:1017600003FA06F6314300F00046B6F1004F02D10D
:101770001C4EF16101E01B4E7160F0BD30B50022DE
:101780008B071C0F0F2303FA04F2164B08338C103F
:1017900053F824309343134C08348D1044F825300B
:1017A00023468C1053F824308C07240F00FA04F4DD
:1017B00023430C4C08348D1044F8253030BD0A49C1
:1017C000DC3108607047000000080140000C014057
:1017D000001001400014014000180140001C0140AD
:1017E000002001400000014000002042DF48006866
:1017F00040F00100DD49086008464068DC490840C7
:10180000DA49486008460068DA490840D749086064
:101810000846006820F4802008600846406820F4EC
:10182000FE0048604FF41F0088607047CF49096888
:1018300021F48031CD4A11601146096821F48021DC
:101840001160B0F5803F03D0B0F5802F0ED106E0D7
:10185000C649096841F48031C44A116007E0C349B0
:10186000096841F4A021C14A116000E000BF00BF37
:10187000704710B501460022002300204A11012ABA
:1018800002D1BA4C236806E0022A02D1B74C236A7F
:1018900001E0B64C636A01F01F02012494401C4031
:1018A0000CB1012000E0002010BD38B500200090F0
:1018B0000024002500BF3120FFF7DBFF054600981C
:1018C000401C00900098B0F5A06F01D0002DF2D020
:1018D0003120FFF7CEFF08B1012400E000242046AC
:1018E00038BD01460020A14A106820F0F80040EA07
:1018F000C10010607047A049086070470246002090
:101900009A4B586820F47C1042EA01031843974B25
:101910005860704798490866704701460020934A0E
:10192000506820F003000843506070478F484068BB
:1019300000F00C007047014600208C4A506820F0EF
:10194000F00008435060704701460020874A506805
:1019500020F4E06008435060704701460020834A4D
:10196000506820F4605040EAC1005060704729B1CF
:101970007E4A527A02437D4B5A7204E07B4A527A85
:1019800082437A4B5A7270477B49D831086070475E
:1019900001460020754A506820F4404008435060DA
:1019A00070470021714A20321170704A82F820106D
:1019B000012802D004280AD104E001216B4A203218
:1019C000117005E00521694A2032117000E000BF66
:1019D00000BF70476949086070476449096A01435C
:1019E000624A11627047654944390860704730B5F2
:1019F00000210022002400235C4D6D6805F00C01DD
:101A000021B1042905D0082923D105E05C4D0560EA
:101A100022E05B4D05601FE0544D6D6805F47012C7
:101A2000524D6D6805F48034022505EB92421CB9D5
:101A3000544D554305600BE04C4D6D6805F4003581
:101A40001DB1504D5543056002E04D4D55430560B5
:101A500002E04B4D056000BF00BF444D6D6805F0CE
:101A6000F0010909484D6B5C0568DD4045603F4D5C
:101A70006D6805F4E061090A434D6B5C4568DD4023
:101A800085603A4D6D6805F46051C90A3E4D6B5C46
:101A90004568DD40C560354D6D6805F44041890BF2
:101AA0003A4D6B5CC568B5FBF3F5056130BD29B1F6
:101AB0002E4A526902432D4B5A6104E02B4A526967
:101AC00082432A4B5A61704729B1284A92690243DE
:101AD000264B9A6104E0254A92698243234B9A611E
:101AE000704729B1214AD2690243204BDA6104E0F0
:101AF0001E4AD26982431D4BDA61704729B11B4AE5
:101B0000D2680243194BDA6004E0184AD268824373
:101B1000164BDA60704729B1144A12690243134B1D
:101B20001A6104E0114A12698243104B1A6170472E
:101B300012494039086070470F49C86470470B4923
:101B4000C87170470948406A40F080700749486290
:101B5000704701460020054A92680A400AB10120F8
:101B600000E0002070470149887270470010024071
:101B70000000FFF8FFFFF6FE0000424280044242F0
:101B800000127A0000093D003800002048000020C3
:101B900010B50446FB48844209D101218803FFF7B0
:101BA000ADFF00214FF48040FFF7A8FF32E0F64878
:101BB000844209D101214804FFF7ADFF00214FF411
:101BC0000030FFF7A8FF25E0F048844209D1012149
:101BD0008804FFF7A0FF00214FF48020FFF79BFF50
:101BE00018E0EB48844209D10121C804FFF793FFB4
:101BF00000214FF40020FFF78EFF0BE0E548844200
:101C000008D101210805FFF786FF00214FF480105D
:101C1000FFF781FF10BD2DE9F04786B005460E465F
:101C20000024A24600BFA1460027B08900B100BF32
:101C30002F462C8A4CF6FF700440F08804432C8217
:101C4000AC894EF6F3100440B0883189084371899D
:101C500008430443AC81AC8A4FF6FF400440B0898E
:101C60000443AC8201A8FFF7C2FEC648874202D1F6
:101C7000DDF810A001E0DDF80CA0A88900F4004018
:101C800040B10AEBCA0000EB0A1031684900B0FB12
:101C9000F1F807E00AEBCA0000EB0A10316889008E
:101CA000B0FBF1F86420B8FBF0F0040120096421D6
:101CB00001FB1089A88900F4004040B1322000EBFC
:101CC000C900B0FBF1F000F00700044308E0322047
:101CD00000EB09106421B0FBF1F000F00F000443A9
:101CE0002C8106B0BDE8F0874FF416510160002149
:101CF0008180C18001810C21418100218181704757
:101D000010B502460020108A4FF2FF0318400B88DE
:101D10004C8823438C882343CC8823431843108268
:101D200010BD0021018041808180C180704721B1B8
:101D3000828942F40052828104E082894DF6FF7369
:101D40001A4082817047F0B5034600240026002522
:101D5000002040F66A17B94200D100BF1846C1F30F
:101D6000421401F01F06012707FA06F5012C01D1E4
:101D70000C3004E0022C01D1103000E014301AB114
:101D800007682F43076002E00768AF430760F0BDB4
:101D90001AB1838A0B43838202E0838A8B43838256
:101DA0007047028A4FF6F0731A400282028A0A4391
:101DB0000282704782894FF2FF731A4082818289C2
:101DC0000A438281704721B1828942F002028281F6
:101DD00004E082894FF6FD731A4082817047028ABF
:101DE0004FF6DF731A400282028A0A43028270476A
:101DF00021B1028A42F48042028204E0028A4BF658
:101E0000FF731A4002827047C1F308028280704754
:101E100001468888C0F308007047818941F00101BC
:101E200081817047028BD2B20283028B42EA012287
:101E300002837047028B02F47F420283028B0A43C3
:101E40000283704721B1828A42F02002828204E03C
:101E5000828A4FF6DF731A408282704721B1828AEC
:101E600042F01002828204E0828A4FF6EF731A4039
:101E70008282704721B1828A42F00802828204E0A5
:101E8000828A4FF6F7731A408282704721B18289A5
:101E900042F40042828103E08289C2F30E02828111
:101EA000704721B1828A42F40062828204E0828A11
:101EB0004FF2FF731A4082827047828A4FF6FB739B
:101EC0001A408282828A0A438282704721B1828AC2
:101ED00042F00202828204E0828A4FF6FD731A40C9
:101EE0008282704702460020B1F5007F00D100BF1A
:101EF00013880B400BB1012000E00020704701F473
:101F00000072B2F5007F00D100BFCA430280704763
:101F100070B50246002400230025002040F66A1612
:101F2000B14200D100BFC1F3421501F01F030126E9
:101F300006FA03F3012D02D19689334006E0022D03
:101F400002D1168A334001E0968A33400C120126F2
:101F500006FA04F41688344013B10CB1012000E0F5
:101F6000002070BD10B50022002340F66A14A14283
:101F700000D100BF0A1201249440A3B2DC430480C4
:101F800010BD0000003801400044004000480040FF
:101F9000004C00400050004031490143314A11607B
:101FA000704770B5002100230F22C47804B32D4C74
:101FB000246804F4E064C4F5E064210AC1F1040378
:101FC000CA40447804FA03F184781440214309019B
:101FD000254C0678A155047804F01F050124AC4077
:101FE00005786D11AD0005F1E025C5F8004109E067
:101FF000047804F01F050124AC401C4D06787611CE
:1020000045F8264070BD1A4A0A400243154B1B1F73
:102010001A60704739B1134A121D12680243114BFE
:102020001B1D1A6006E00F4A121D126882430D4BF9
:102030001B1D1A607047042808D14FF0E021096980
:1020400041F004014FF0E022116107E04FF0E02180
:10205000096921F004014FF0E0221161704700008E
:102060000000FA050CED00E000E400E080E100E093
:1020700080FFFF1F0E49086070470D494860704798
:102080000B49886070474AF6AA20094908607047E2
:102090004CF6CC4006490860704701460020044ACF
:1020A000D2680A400AB1012000E000207047000019
:1020B0000030004010B50446FE48844208D101219A
:1020C000C014FFF71BFD0021E014FFF717FDC4E06B
:1020D000B4F1804F08D101210846FFF71CFD002113
:1020E0000120FFF718FDB8E0F348844208D1012130
:1020F0000220FFF710FD00210220FFF70CFDACE0ED
:10210000EE48844208D101210420FFF704FD00219C
:102110000420FFF700FDA0E0E948844208D1012136
:102120000820FFF7F8FC00210820FFF7F4FC94E0FA
:10213000E448844208D101211020FFF7ECFC002183
:102140001020FFF7E8FC88E0DF48844208D1012135
:102150002020FFF7E0FC00212020FFF7DCFC7CE0E2
:10216000DA48844208D101214014FFF7C7FC00215E
:102170006014FFF7C3FC70E0D548844209D1012107
:10218000C804FFF7BBFC00214FF40020FFF7B6FCAA
:1021900063E0D048844209D101210805FFF7AEFC75
:1021A00000214FF48010FFF7A9FC56E0CA48844292
:1021B00009D101214805FFF7A1FC00214FF40010CF
:1021C000FFF79CFC49E0C548844208D1012140202A
:1021D000FFF7A1FC00214020FFF79DFC3DE0C04837
:1021E000844208D101218020FFF795FC0021802046
:1021F000FFF791FC31E0BB48844208D101218015F2
:10220000FFF789FC0021A015FFF785FC25E0B64803
:10221000844209D101210804FFF770FC00214FF42A
:102220008030FFF76BFC18E0B048844209D10121EF
:102230004804FFF763FC00214FF40030FFF75EFC19
:102240000BE0AB48844208D101218804FFF756FC1B
:1022500000214FF48020FFF751FC10BD00220288BE
:10226000944B98420ED0994B98420BD0B0F1804FCE
:1022700008D0914B984205D0904B984202D0904B99
:10228000984204D14FF68F731A404B881A438D4BF6
:10229000984207D08C4B984204D04FF6FF431A4027
:1022A000CB881A4302808B8883850B880385814BFA
:1022B00098420BD0854B984208D08B4B984205D062
:1022C0008A4B984202D08A4B984201D10B7A0386FE
:1022D00001238382704770B5002400220023058CFF
:1022E0004FF6FE7635400584028C8388048B4FF6CA
:1022F0008F752C40B51E2C400D882C43751E2A402E
:102300000D892A434D882A436A4DA8420BD06F4D50
:10231000A84208D0744DA84205D0744DA84202D0FE
:10232000734DA84213D14FF6F7752A404D892A43C1
:102330004FF6FB752A408D882A434FF6FF652B40E8
:102340004FF6FF552B408D892B43CD892B4383803E
:102350000483CD888586028470BD70B50024002278
:102360000023058C4FF6EF7635400584028C838878
:10237000048B48F6FF752C404FF6FF452C400D8826
:102380004FF6FF7606EA05252C434FF6DF752A4007
:102390000D8906EA05152A434D8806EA05152A43E4
:1023A000444DA84202D0494DA8421DD14FF67F7539
:1023B0002A404D894FF6FF7606EA05152A434FF667
:1023C000BF752A408D8806EA05152A434FF6FF356A
:1023D0002B404FF2FF752B408D8906EA85052B4374
:1023E000CD8906EA85052B4383800483CD88058744
:1023F000028470BD70B5002400220023058C4FF6C6
:10240000FF6635400584028C8388848B4FF68F7578
:102410002C404FF6FC752C400D882C434FF6FF5591
:102420002A400D894FF6FF7606EA05252A434D8896
:1024300006EA05252A431F4DA84202D0234DA84293
:102440001DD14FF2FF752A404D894FF6FF7606EAFF
:1024500005252A434FF6FF352A408D8806EA0525D3
:102460002A434EF6FF752B404DF6FF752B408D89A4
:1024700006EA05152B43CD8906EA05152B43838013
:102480008483CD888587028470BD70B500220023C7
:102490000024058C4EF6FF7635400584038C848835
:1024A000828B48F6FF752A404FF6FF452A400D887B
:1024B00020E00000002C0140000400400008004023
:1024C000000C0040001000400014004000340140A7
:1024D000004C0140005001400054014000180040F1
:1024E000001C00400020004000400140004401402A
:1024F000004801404FF6FF7606EA05252A434DF6CF
:10250000FF752B400D8906EA05352B434D8806EAF9
:1025100005352B43FA4DA84202D0FA4DA84208D106
:102520004BF6FF752C408D894FF6FF7606EA851530
:102530002C4384808283CD88A0F84050038470BDF2
:10254000828B4FF2FF331A408283828B4FF6FF73E8
:1025500003EA01231A4382837047F0B50C461546FF
:10256000002200210026078C4EF6FF7C07EA0C07AC
:102570000784828B018C4FF6FF7707EA043640F61A
:10258000FF473A404FF6FF7707EA05273A434FF6F1
:10259000FF7707EA03373A43D94FB8420ED0D94FF5
:1025A000B8420BD0B0F1804F08D0D74FB84205D019
:1025B000D64FB84202D0D64FB84206D14DF6FF777B
:1025C000394046F48057394305E047F6FF57394014
:1025D00044F48057394382830184F0BD828B4FF6E7
:1025E000F3731A408283828B0A4382837047F0B56B
:1025F0000C461546002200210026078C4FF6FF6C82
:1026000007EA0C070784828B018C4FF6FF7707EAF5
:1026100004264FF60C773A404FF6FF7707EA031788
:102620002F433A43B64FB8420ED0B64FB8420BD004
:10263000B0F1804F08D0B44FB84205D0B34FB84284
:1026400002D0B34FB84206D14FF6FF57394046F497
:102650008077394305E04FF2FF57394044F48077E3
:10266000394382830184F0BD028B4FF2FF331A405D
:102670000283028B4FF6FF7303EA01231A4302839E
:102680007047F0B50C461546002200210026078C45
:102690004FF6EF7C07EA0C070784028B018C4FF69C
:1026A000FF7707EA041640F6FF473A404FF6FF77F8
:1026B00007EA03373A434FF6FF7707EA05273A431D
:1026C0008F4FB8420ED08F4FB8420BD0B0F1804F31
:1026D00008D08D4FB84205D08C4FB84202D08C4FF5
:1026E000B84206D14FF6DF77394046F0100739433C
:1026F00005E04FF65F77394044F010073943028315
:102700000184F0BD028B4FF6F3731A400283028BF3
:102710000A4302837047F0B50C461546002200219B
:10272000068C4FF6FE773E400684028B018C4FF6F6
:102730000C7632407E1C06EA03162E433243704E5E
:10274000B0420ED06F4EB0420BD0B0F1804F08D0E7
:102750006D4EB04205D06D4EB04202D06C4EB042CC
:1027600006D14FF6FD76314044F00106314305E0D5
:102770004FF6F576314044F001063143028301847F
:10278000F0BD70B505460C465D4885420ED05D48EB
:1027900085420BD0B5F1804F08D05B48854205D00B
:1027A0005A48854202D05A48854200D100E000BF15
:1027B000208850B92389A28861882846FFF7ABFF9B
:1027C000E1882846FFF79EFF25E0208804280AD1EB
:1027D0002389A28861882846FFF753FFE1882846AD
:1027E000FFF742FF17E0208808280AD12389A28832
:1027F00061882846FFF7FBFEE1882846FFF7EEFEDA
:1028000009E02389A28861882846FFF7A6FEE188AF
:102810002846FFF795FE70BD2DE9F04105460C46B0
:1028200000260127608808B9022600E00026A0885B
:10283000012801D1022700E001272088A0B92389BF
:10284000A28861882846FFF766FFE1882846FFF7DF
:1028500059FF23893A4631462846FFF712FFE1889F
:102860002846FFF701FF13E02389A28861882846E4
:10287000FFF707FFE1882846FFF7F6FE23893A466F
:1028800031462846FFF747FFE1882846FFF73AFF21
:10289000BDE8F0810A884B881A438B881A43CB889D
:1028A0001A430B891A434B891A438B891A43A0F8A0
:1028B000442070474FF6FF71818000210180C18064
:1028C0004180017270470021018041808180C18078
:1028D000018141818181C181704700210180418056
:1028E000012181800021C180018170470021018088
:1028F00041808180C18001814181818170470000D8
:10290000002C014000340140000400400008004059
:10291000000C004021B1028842F00102028004E074
:1029200002884FF6FE731A400280704731B1B0F84A
:10293000442042F40042A0F8442005E0B0F84420CE
:10294000C2F30E02A0F8442070471AB183890B43EA
:10295000838102E083898B43838170478182704742
:1029600041EA0203A0F8483070471AB183890B434B
:10297000838102E083898B438381704701894FF60D
:10298000F8721140018170470A46002101894FF613
:102990008F73194011430181704730B504460D46CD
:1029A00029462046FFF7F0FF208940F007002081EC
:1029B00030BD2DE9F04104460D4616461F46602DF8
:1029C00006D13B46012231462046FFF75AFE05E07C
:1029D0003B46012231462046FFF79DFE2946204610
:1029E000FFF7D2FF208940F007002081BDE8F08189
:1029F00030B50C4600210189C9B24FF6FF7505EAD2
:102A00000325154325432943018130BD2DE9F041BC
:102A100005460E4617469846002443463A46314638
:102A20002846FFF7E5FF2C894FF6F870044044F084
:102A300007044FF68F70044044F070042C81BDE809
:102A4000F081F0B504460D4616461F463B46324619
:102A500029462046FFF7CCFF208940F480402081A2
:102A6000F0BD0185828270470A46002101884FF639
:102A70008F731940114301807047F0B50C4615461D
:102A80001E460021002200230189028B038C4FF691
:102A9000F877394021434FF6FC473A4040F201179E
:102AA0003A434FF6DD773B404FF6FF7707EA0617CC
:102AB0002F433B43018102830384F0BD0A4600217A
:102AC000018B4FF68F7319401143018370470A46FB
:102AD0000021018B48F6FF7319404FF6FF7303EA9C
:102AE00002231943018370470A460021818B4FF668
:102AF0008F7319401143818370470A460021818BEF
:102B000048F6FF7319404FF6FF7303EA0223194397
:102B10008183704721B1028842F08002028004E084
:102B200002884FF67F731A400280704721B1828875
:102B300042F00402828004E082884FF6FB731A4060
:102B40008280704721B1828842F00802828004E0CE
:102B500082884FF6F7731A408280704721B18288CD
:102B600042F00102828004E082884FF6FE731A4030
:102B7000828070470A460021018B4FF6F773194097
:102B80001143018370470A460021018B4FF2FF7306
:102B900019404FF6FF7303EA02231943018370477C
:102BA0000A460021818B4FF6F77319401143818348
:102BB00070470A460021818B4FF2FF7319404FF690
:102BC000FF7303EA02231943818370470A460021F9
:102BD000018B4FF6FB7319401143018370470A467E
:102BE0000021018B4FF6FF3319404FF6FF7303EAC4
:102BF00002231943018370470A460021818B4FF657
:102C0000FB7319401143818370470A460021818B71
:102C10004FF6FF3319404FF6FF7303EA02231943BF
:102C2000818370470A460021018B4FF67F7319405C
:102C30001143018370470A460021018BC1F30E0145
:102C40004FF6FF7303EA02231943018370470A46D4
:102C50000021818B4FF67F731940114381837047A8
:102C60000A460021818BC1F30E014FF6FF7303EA80
:102C700002231943818370470A460021018C4FF6D5
:102C8000FD7319401143018470470A460021018CED
:102C90004FF6F77319401143018470470A4600212B
:102CA000018C4FF6DF7319404FF6FF7303EA0213EE
:102CB0001943018470470A460021018C4FF67F7347
:102CC00019404FF6FF7303EA02131943018470475A
:102CD0000A460021018C4FF6FF5319404FF6FF734F
:102CE00003EA02231943018470470A460021018C3C
:102CF0004FF2FF7319404FF6FF7303EA02231943A3
:102D0000018470470A460021018C4DF6FF7319407B
:102D10004FF6FF7303EA023319430184704730B55D
:102D2000002301248C40A3B2048C9C430484048CB3
:102D300002FA01F5ADB22C43048430BD30B5002356
:102D400004248C40A3B2048C9C430484048C02FAB7
:102D500001F5ADB22C43048430BD70B503460020AC
:102D600000241846183001258D40ACB21D8CA543B7
:102D70001D8409B1082909D100EB6100056825F01F
:102D8000700505600568154305600EE00D1FC5F36D
:102D90004E052844056825F4E045056005684FF6B2
:102DA000FF7606EA02263543056070BD21B1028830
:102DB00042F00202028004E002884FF6FD731A40DE
:102DC0000280704721B1028842F00402028004E0D0
:102DD00002884FF6FB731A400280704721B1828847
:102DE00042F08002828004E082884FF67F731A40AE
:102DF0008280704702884FF6F7731A40028002887B
:102E00000A430280704782884FF68F731A4082808F
:102E100082880A438280704702894FF6F8731A400D
:102E2000028102890A430281704702894FF67F734B
:102E30001A40028102890A430281704781847047E7
:102E40008185704781867047018770478187704709
:102E5000A0F84010704702884FF6FF431A400280E6
:102E600002880A43028070470146888E70470146F7
:102E7000088F70470146888F70470146B1F84000BF
:102E800070470146888C70470146088D704702469E
:102E90000020138A0B400BB1012000E00020704796
:102EA000CA430282704730B5024600200023002446
:102EB000158A05EA0103958905EA010413B10CB1ED
:102EC000012000E0002030BDCA43028270477047F5
:102ED0007CB51D4616460C00009001D02044401ED3
:102EE000074B7B442A4669460190304600F061FD5D
:102EF00005461CB10020694600F06EFD28467CBDE9
:102F0000FD0A00000FB4044910B503AA029800F0AE
:102F100087FD10BC5DF814FB3000002070B504463E
:102F200085690068C10601D5302600E02026C0076B
:102F300007D070BDD4E9012130469047206A401C7B
:102F400020626D1EF6D570BD70B5044685690078A7
:102F5000C00707D170BDD4E9012120209047206A25
:102F6000401C20626D1EF6D570BD09684A0501D56A
:102F700040B27047C905FCD500B2704709684A05E0
:102F800001D5C0B27047C905FCD580B2704770B595
:102F90000C460546012A05D02878800600D5EA6946
:102FA000002302E0012305E05B1C934202D2E05CB7
:102FB0000028F9D1A869E618C01AA861286A18443F
:102FC00028622846FFF7AAFF04E0D5E9012114F89A
:102FD000010B9047B442F8D32846FFF7B5FF70BD08
:102FE0002DE9F0410646002410687529314616A5E2
:102FF00010D0FFF7BAFF002802DA404213A507E01D
:1030000031688A0701D512A502E0490704D511A548
:10301000012401E0FFF7B2FF00210A2206F1240794
:1030200009E0B0FBF2FCB0FBF2F302FB1C00303015
:1030300078541846491C0028F3D123462A463046C6
:10304000BDE8F04100F035BA000000002D0000009E
:103050002B000000200000002DE9FF5F15468A4686
:103060000446DFF8AC80F8440027D8E900103E465B
:10307000CDE9001010E03AF816106A4602A800F0F8
:10308000BDFD411C07D02178890603D5E2693918B6
:1030900091420DD80744761C2078800602D5E0695D
:1030A000B84205DDAE42E6DB3AF816000028E2D170
:1030B000A069C01BA0612046FFF730FFD8E90010CF
:1030C000CDE90010002017E03AF818106A4602A86F
:1030D00000F094FDB0F1FF3F81460BD000250DF1CB
:1030E000080B05E0D4E901211BF8050090476D1C91
:1030F0004D45F7D308F10100B0428046E4DB206A79
:10310000384420622046FFF71FFFBDE8FF9F000004
:10311000422E000030B4002100F1240408E002F047
:103120000705D208303542EA4372DB086554491C72
:1031300052EA0305F3D10468002310A2250708D53D
:1031400004F020040C4304D0C46901230CA2641EC3
:10315000C46130BC00F0ADB910B50446214610681A
:10316000FFF70CFF02462046BDE810400023D1E7E0
:10317000D21D22F00701D1E90023CBE700000000B7
:1031800030000000F0B40D460188090502D5214C3D
:103190007C4402E01F4C7C440E34002100F12406E4
:1031A00008E002F00F071209E75D42EA03721B090B
:1031B0007754491C52EA0307F3D10278002312071F
:1031C00004D5702D06D009B1022311342246F0BC7B
:1031D00000F06FB901231034F8E770B504460D46CE
:1031E00021461068FFF7CAFE024629462046BDE880
:1031F00070400023C6E7D21D22F00703D3E9002365
:10320000C0E70368126843F0200303600823C3612A
:103210000023B7E7202D00002DE9F05F8946044622
:103220004FF0000ADFF874B1FB44C0F820A020463C
:10323000E1688847002874D0252806D0D4E9012108
:103240009047206A401C2062F1E700265F46204636
:10325000E16888472028054607DB312D05D278191B
:1032600010F8200C08B10643F1E7B00701D526F0AD
:103270000406C4F81CA00027C4F818A02A2D09D001
:10328000284602F018F838B304EB8708303DC8F838
:10329000185019E059F8041B204604EB870291618D
:1032A000E1688847012F054618D1E069002820DA37
:1032B00026F020061DE0D8F8180000EB800005EB92
:1032C00040003038C8F818002046E16888470546B5
:1032D00001F0F1FF0028EED1012F0AD02E2D08D1E8
:1032E0002046E16888477F1C0546022F46F02006ED
:1032F000C4DBA069002803DA404246F00106A06161
:10330000F00701D026F010066C2D0BD0682D09D0E7
:103310004C2D39D06A2D35D0742D35D07A2D33D03F
:1033200016E038E0E1682F4620468847B842054657
:1033300009D16C2F26D04FF48060E1680643204607
:103340008847054604E06C2F1AD04FF4807006437E
:103350000DB3A5F14100192802D8203546F40066C6
:103360004A462946204626604E46FCF71BFF80B1A0
:1033700001280BD0F61D26F0070000F1080956E7DA
:103380004020E4E78020D8E70020D6E706F10409D2
:103390004DE7284652E7206ABDE8F09FB02C0000B8
:1033A00070B5064600F076F80468054630460A22F5
:1033B000002100F0EBFB2C6070BD401ECAB210F87B
:1033C000011F8A4202D00029F9D10020704730B590
:1033D00005460B462A4613F8014B12F8010B08B1BB
:1033E000A042F8D01CB1002802D06D1CF1E728469D
:1033F00030BD4FF000020429C0F0128010F0030C21
:1034000000F01E84CCF1040CBCF1020F18BF00F8D0
:10341000012BA8BF20F8022BA1EB0C0100F010BC7F
:103420005FEAC17C24BF00F8012B00F8012B48BFE4
:1034300000F8012B704710B5044610F0030F08BFC9
:1034400011F0030F40F015804FF0013E121FC0F243
:103450000E8051F8043BA3EB0E0C2CEA030C1CEA83
:10346000CE1C08BF40F8043BF0D0A1F1040102F1EA
:103470000402521E08DB11F8013B002B00F8013B4F
:10348000F7D11146FFF7B5FF204610BD70477047D2
:1034900070477047004870470402002010B5FFF7DE
:1034A000F9FF006810BD10B50446FFF7F3FF046094
:1034B00010BD2DE9F0470D4699469246044600F1AD
:1034C00024080168880604D5E06921F01001216014
:1034D00000E00120A84201DD471B00E00027A169B0
:1034E0007A1902EB0900081AA0612078C00602D4FC
:1034F0002046FFF713FD002608E0D4E901211AF861
:1035000006009047206A401C761C20624E45F4DB82
:103510002078C0060AD52046FFF700FD06E0D4E972
:10352000012130209047206A401C2062381EA7F1FC
:103530000107F4DC07E0D4E9012118F80500904701
:10354000206A401C2062281EA5F10105F3DC2046FC
:10355000FFF7FAFC2078000602D50220BDE8F087CC
:103560000120FBE711680268006A530501D5087065
:103570000AE0D30501D5088006E0130603D5C2177B
:10358000C1E9000200E008600120704770472DE9A2
:10359000FF4F0C461E464FF0FF378BB0D2E90001BB
:1035A000DDF860800A908A46C1F30A5505B93D46A8
:1035B000002108464FF00000BAF1000F00F440006F
:1035C00005DA00EB80004FF4400101EA50004FEAB9
:1035D0009059B9F1010F00DDB9460A9850EA4A0046
:1035E0000ED044F61050A5F2FF3545432F14B8F124
:1035F000000F1ED07542291E1EDDC9F100021CE01D
:10360000B8F1010F4FF0000001D0302103E0F24388
:1036100005E02154401CB042FBDB30460022002173
:1036200021540B99C1F80880C1E900200FB0BDE812
:10363000F08FBD1B6D1CDEE74A4600DA694206A822
:1036400000F032FC06AB93E8070003AB83E8070009
:1036500050460A9901F0A7F98DE80700A0F500503F
:103660001F3800900398002D09DD42F21F014A46E1
:10367000084403A90390684601F031FC08E0A0F576
:1036800000504A461F3803A90390684601F04FFCDA
:103690008DE807000004000C03D04FF0FF30410814
:1036A00000E01046B8F1000F03D00022009215464A
:1036B0001EE0751E05D400F0F9FA303262556D1E19
:1036C000F9D5B3460122084302D000227F1C04E052
:1036D0002078302801D100227F1E002A099786D049
:1036E0001DE0112D07DA00F0E1FA303262556D1C51
:1036F00050EA0102F5D1084302D00098C8B10EE0AB
:103700000021681E05E0235C625C63542254401E65
:10371000491C8142F7DBAB46A81B401E09900020E4
:1037200004F80B000B98099AC0F80880C0E9002B38
:103730007CE711264FF0000859E72DE9F04F884645
:103740000446D21D22F0070191B0D1E90001CDE974
:103750000A0101F036FD02460B98C00F01D02D2062
:1037600007E02068810701D52B2002E0202101EA33
:10377000C000032A099001D0072A05DB0346414611
:10378000204600F0E1FA0BE12078800601D5E069DF
:1037900000E00620B8F1650F814606D0B8F1660F4B
:1037A00018D0B8F1670F70D131E00020B9F1110FD6
:1037B000009001DB112301E009F101030AAA01A92C
:1037C0000CA8FFF7E4FEDDE90C70002609F1010505
:1037D000834647E001204B4600904FF000470AAA7D
:1037E00001A90CA8FFF7D3FEDDE90DB00C995D46E9
:1037F000002610B909F101000D18B9EB050003D43A
:10380000C0F1FF3609F10105A5EB09002BE0B9F184
:10381000010F01DA4FF001090020B9F1110F0090FA
:10382000484601DD112300E003460AAA01A90CA8BD
:10383000FFF7ADFEDDE90C704D460026834620788B
:1038400000070AD4AB4500DA5D4601A8012D04DD6E
:10385000411911F8011C302907D04F4502DA17F140
:10386000040F04DA012082460FE06D1EEEE7002F00
:1038700002DCED1B3E4403E0781CA84200DD7D1C09
:10388000B81B00F1010A4FF000472078000703D46D
:10389000AA4501DB4FF0FF3A0021B7F1004F0DF1CF
:1038A00043088DF8431024D002202B23002F01DA87
:1038B0007F422D230A21021EA0F1010000DC5FB12E
:1038C00097FBF1FC97FBF1F201FB1C7C17460CF116
:1038D000300C08F801CDEEE7A8F101000370218853
:1038E000090501D5452100E06521A0F1010800F896
:1038F000011C09980FA9A1EB0807FF1D00B10120C9
:10390000411901EBEA70A1693844081A401EA06110
:103910002078C00602D42046FFF700FB099828B1A2
:10392000D4E901219047206A401C20622078C0061B
:1039300022D52046FFF7F2FA1EE0002E04DBB34545
:1039400002DD01A8805D00E03020D4E9012190472C
:10395000206A401C2062761CAAF101005FEA000A7E
:103960000AD100F09FF9C0680168405CD4E90121E8
:103970009047206A401C2062281EA5F10105DCDC6E
:1039800007E0D4E9012118F8010B9047206A401C98
:103990002062381EA7F10107F3DC2046FFF7D4FAB6
:1039A000032011B043E6000001694A1C0261087857
:1039B000704700B58FB0CDE901310021059105496F
:1039C0007944CDE9031011466846FFF725FC0FB096
:1039D00000BD0000E5FFFFFF0A6802F8010B0A6066
:1039E0007047D1E900239A4202D2531C0B60107039
:1039F000704710B5436913B1AFF3008001E0FFF7E2
:103A0000C6FA012010BD127800F124010A700022CC
:103A10004A700122EDE711684FF0FF32E9E700003C
:103A2000074B70B50D467B44FFF7C3FF044628469D
:103A300000F0A8FA10B14FF0FF3070BD204670BD05
:103A4000E3D5FFFF10B5436913B1AFF3008001E088
:103A5000FFF702FB012010BD128800F124018284CF
:103A60000022C2840122EDE711684FF0FF32E9E73E
:103A70002DE9F0418046D21D22F007020025D2E94F
:103A80000002F52915A614D0011E72F1000106DA14
:103A90000023D0EB030063EB020211A608E0D8F884
:103AA00000108B0701D50FA602E0490701D50EA62D
:103AB00001251146002408F1240704E000F0F6F87F
:103AC00030323A55641C50EA0102F7D12B46324697
:103AD00021464046BDE8F041FFF7EBBC0000000086
:103AE0002D0000002B000000200000000FB4002378
:103AF00000B589B00CA900910B99CB60204B7B4499
:103B00000693204B7B44079304236FF00042CDE9DA
:103B100001321D4A7A446B4608920246002002F0A8
:103B20009BF909B05DF814FB70B506464FF0FF3005
:103B300015460C46324686B00091CDE90101694632
:103B40000020049004A8FFF7D1FF03460498211831
:103B500025B108B10A4600E022462A6000280DD0AF
:103B6000002B02DD0098884208D03246081B6946C7
:103B70000094CDE9010404A8FFF7B8FF06B070BDBA
:103B8000C7020000DF0200001F0200002DE9F0471D
:103B900091460F4680460446002614F8015B2DB17D
:103BA00000F078F80068405DC007F6D12B2D02D0F8
:103BB0002D2D18D0641E4A463946204600F024F9BF
:103BC00027B13968A14201D1C7F800804FF0020443
:103BD00071050BD54042002803DDFFF75BFC046054
:103BE000A007BDE8F08746F48066E4E70028F8DA2D
:103BF000FFF750FC04606FF00040F2E770B5164626
:103C00000C46054600F046F8036893F801010128C8
:103C100006D0FF2C0FD8185D68B101202C7070BD44
:103C2000D3F807013246214603F20713034428461E
:103C3000BDE8704018474FF0FF3070BD4FF00002F4
:103C400000B5134694469646203922BFA0E80C5092
:103C5000A0E80C50B1F12001BFF4F7AF090728BF6D
:103C6000A0E80C5048BF0CC05DF804EB890028BFE9
:103C700040F8042B08BF704748BF20F8022B11F012
:103C8000804F18BF00F8012B7047000000487047B4
:103C90000402002010B500F005F8001D10BD00BFA3
:103CA00049170000004870472402002030B5B0F1E9
:103CB0000A024FEA900E71F100034EEA817EB0EBEA
:103CC0000E0061EB91014FEA101E4EEA017E10EBEF
:103CD0000E0041EB11114FEA102E4EEA016E10EB6F
:103CE0000E0041EB11214FEA104E4EEA014E10EB4F
:103CF0000E0041EB1141401841F100014FEAD000A4
:103D000040EA41704FEAD10110EB80054FEA81048F
:103D100044EA907444EB01046D1944EB0404521B13
:103D2000A3414FF0000348BF0A3200D530BD401C0C
:103D300041F1000130BD10B50446FFF7ABFF00684C
:103D4000005D00F0010010BD2DE9F0411F46044662
:103D500003260168072A01F4006004DB08B116A5F8
:103D600005E016A503E008B115A500E015A521F0B2
:103D700010002060A069C01EA0610FB1401EA061AC
:103D80002046FFF7CBF84FB1D4E9012138469047E0
:103D9000206A401C2062C01C206206E0206AFAE70C
:103DA000D4E9012115F8010B9047761EF8D2204680
:103DB000FFF7CAF8BDE8F0814E414E006E616E001B
:103DC000494E4600696E6600426842B1016811F8CA
:103DD000013B23B1521EC0E9001218467047012171
:103DE000C160881E704742685AB1C368016843B910
:103DF00083688B4205D0491E521CC0E90012002086
:103E000070474FF0FF3070472DE9F05F824615464E
:103E10008B4600270AF10104B9460078302801D00A
:103E20009DB113E014F8010B0127782803D058281E
:103E300001D045B10AE00DB1102D07D1002714F8CB
:103E4000010B102502E0082500E00A250026B046F7
:103E50000EE005FB080005FB06F101271FFA80F8BC
:103E600001EB1046B6F5803F00D3B94614F8010BBC
:103E7000294600F0B0F80028EBDABBF1000F05D0BE
:103E80000FB1641E00E05446CBF80040B9F1000FBA
:103E900006D0FFF7FFFA02210160C81EBDE8F09FBF
:103EA00048EA0640FAE700002DE9F0478146164649
:103EB0008AB0334878440DC88DE80D003048784406
:103EC000801C03AC0DC884E80D0041F69B3008440B
:103ED000372190FBF1F290FBF1F5A5F1800501FB94
:103EE00012041B3C02D56442012000E00020DFF8F0
:103EF00090A080460027FA44AAF1BE0A0DE0E00730
:103F000009D03246684607EB47010AEB810101F010
:103F10000EF88DE8070064107F1C002CEFD1184FBD
:103F20007F44AC3F18E0E80714D007EB04100DF114
:103F3000180A90E80E008AE80E00C068F04201D12D
:103F400098190890324606A903A800F0F0FF03ABC9
:103F500083E807006D10641C002DE4D132466946E9
:103F6000B8F1000F03A802D000F0B9FF01E000F0A3
:103F7000DEFFC9E90001C9F808200AB0BDE8F087F2
:103F8000B4200000007B00F0800070477546FFF70A
:103F90007DFEAE4605006946534620F00700854683
:103FA00018B020B5FDF762FABDE820404FF00006DA
:103FB0004FF000074FF000084FF0000B21F0070111
:103FC000AC46ACE8C009ACE8C009ACE8C009ACE854
:103FD000C0098D4670473A2800D2303820F02002C0
:103FE000412A01D3A2F13700884201D34FF0FF30BC
:103FF000704700002DE9FF4F064689B00878FF287A
:1040000006D0491C2D2805D000244FF0000908E0F7
:1040100000200CE00124F8E709EB8903491C00EBC0
:1040200043090878FF28F7D114B1C9F1000081468F
:10403000107800252C46AA4629462D2801D02B2889
:1040400004D1521C2D2813D0002082468B461078B4
:10405000FF280FD04FF0000C0A21521CA5FB01785D
:1040600004FB018105FB0C11C5194BEB0104EEE7C4
:104070000120EAE7002108464FF00000BAF1000FE6
:1040800002D000EB80004008C0F38158B8F1010F66
:1040900001DD4FF0FF380C9809EB000755EA0400EA
:1040A00009D04FF0020917F5FA7F0BDA4FEACA7010
:1040B000C6E900B012E04FEACA70C6E900B00DB020
:1040C000BDE8F08FB7F5FA7F0DDDF0487844D0E910
:1040D0000010C6E9001040EACA707060FFF7DAF914
:1040E000C0F80090EBE7391E02DAC8F1000200E0E8
:1040F000424600DA794206A8FFF7D6FE06AB93E8FF
:10410000070003AB83E8070044F23E005BEA0401CA
:104110000090584604D144F21E012C465D460091A1
:10412000210C0904014306D10099240444EA1544F2
:104130002D041039009104F07F41014306D100990C
:10414000240244EA15642D020839009104F07041FC
:10415000014306D10099240144EA15742D01091F79
:10416000009104F04041014306D10099A40044EAC3
:104170009574AD00891E009104F00041084304D1FC
:1041800000986D196441401E009042466846002F19
:10419000CDE9014503A902DD00F0DDFE01E000F0FC
:1041A000B2FEBAF1000F04460D4601D084F000447F
:1041B00040F2FF7724F00040284303D0C4F30A50B4
:1041C000B84212D1FFF766F9C0F80090C4F30A5064
:1041D000B8420AD1AE487844D0E90010C6E90010D0
:1041E00004F000410843706069E7C6E9005466E7DF
:1041F0002DE9FF4F1F464FF0000A4FF0FF384546AC
:1042000091B0D7E90146CDF83CA0FFF74BFDC0685F
:104210000168405C1090B96912986D1C8847396A32
:10422000814688470028F6D1B9F1FF3F0AD0002E19
:1042300024F4D06411DDB9F12B0F08D0B9F12D0FA2
:104240000BD102E0404615B03AE744F48064B96906
:1042500012986D1C8847761E8146600504A901D519
:104260002D2000E02B20002E01F1010B0DF1300874
:104270008DF810003FDDB9F1690F08D0B9F1490F91
:1042800005D0B9F16E0F02D0B9F14E0F1CD13B46EB
:1042900001A8009580E85002DDE912126FF00200DB
:1042A00001F0DEFDC11CCED10EE0B96912986D1C83
:1042B000884781461398761E44F4007405600F9871
:1042C000401C002E0F9016DDB9F1300FEDD0B9F182
:1042D000780F02D0B9F1580F0DD10F9801280AD1EB
:1042E0003B46CDE90054DDE91212001F029601F0B1
:1042F000B5FDC11CA7D1109989453ED144F0800479
:1043000006E01399681CAAF1010A44F400740860DD
:10431000B9696D1C1298761E884730288146F0D006
:104320002BE01099894505D1200603D4761E44F070
:10433000800418E0484600F0BEFF08B3761E0DF179
:1043400023018B4544F4007408D2A9F130000BF826
:10435000010B200607D5AAF1010003E0200602D4D4
:104360000AF101008246A00502D51399681C086075
:10437000B96912986D1C88478146002ED1DC53E044
:10438000002E51DDB9F1650F02D0B9F1450F4BD1C7
:10439000A00549D5B9696D1C1298761E24F44074A5
:1043A0008847002E81460CDD2B2804D0B9F12D0F53
:1043B00007D144F48074B96912986D1C8847761E41
:1043C0008146E00501D52D2100E02B2108F8011BD5
:1043D000CDF8008021E0761E0DF13901884544F4C6
:1043E00000740CD2A9F1300010F0FF0088F8000032
:1043F00002D10099884509D908F1010806E0E005D5
:1044000001D5244801E042F20F708246B969129842
:104410006D1C8847814613980560002E04DD4846D0
:1044200000F049FF0028D6D1F96912988847FF208B
:1044300053468BF8000088F8000000200A900B908B
:1044400004AA0CA90AA8FFF7D5FDA00502D46FF0B5
:104450000100F8E614F0240F0AD0E00714D1386800
:10446000DDE90A12031D3B600068C0E900120BE0A1
:104470000AA9684600F0C8FEE00705D13868009A2E
:10448000011D3960006802602846DCE6D41E000089
:10449000CA1D0000F1D8FFFF10B50446AFF300803D
:1044A0002046BDE81040FBF7E0BE00004FF0013CA5
:1044B00050F8042B51F8043B9A4221D1A2EB0C0393
:1044C000934313EACC1317D150F8042B51F8043B53
:1044D0009A4215D1A2EB0C03934313EACC130BD1F0
:1044E00050F8042B51F8043B9A4209D1A2EB0C037B
:1044F000934313EACC13DBD04FF00000704700BFAA
:10450000D01A01BAB1FA81F101F0180122FA01F0D2
:10451000CB40C1F12001DBB2C0B2C01A2CFA01F3CA
:10452000D11A914311EAC311E6D170472DE9FF4F2B
:104530001F464FF03C0987B04FF00042DDE91410F0
:1045400001F10108DDF858A002EA40500390002074
:1045500005908346054604460490B969461E0898AE
:104560008847AAF1010A0290BAF1000F3BDD0298D8
:104570002E2815D01021FFF72EFD00282EDB4FF03E
:10458000010B0599014317D0B9F1000F0BDB4A4627
:10459000C11700F0F5F905430C43A9F1040905E042
:1045A000012004900BE008B145F0010501200590C1
:1045B000049820B9361D02E0049800B1361FB9698D
:1045C000089808F101088847BBF1000FAAF1010A19
:1045D0000290C9D00999C1F80080C5E702987028F7
:1045E00008D0502806D0F96908988847BBF1000F19
:1045F00014D04FE0002002900120BBF1000F049086
:1046000009D0B969089808F101088847AAF1010999
:10461000B9F1000F07DCF969089888476FF00100CD
:104620000BB0BDE8F08F2B2804D02D280CD14FF013
:10463000FF300490B969089808F101088847A9F18A
:104640000109B9F1000FE6DD411CE4D00A21FFF7B2
:10465000C2FC0028DFDB029908F1010801EB8101AF
:1046600000EB41000290B969089888470A21FFF7DA
:10467000B2FC099AA9F10109B9F1000FC2F8008052
:1046800001DD0028E7DAF96908988847049902985B
:1046900000FB016655EA040004D004F04041090023
:1046A00002D006E0039898E0A40044EA9574AD00B7
:1046B000B61E04F00041080002D16D196441761E57
:1046C000159810F0240F03D04FF00B095C4803E05D
:1046D0004FF028096FF07D008246564507DAAAEBB5
:1046E00006018944B9F1410F01DD4FF04109012074
:1046F0000021A9F1010200F043F9024628400B46CF
:104700002140084301D0012100E00021501E029108
:1047100043F1FF3128402140084301D0012000E04F
:1047200000200299834651EA0B014FD00021084630
:104730004FF00000039900F4400039B100EB800015
:104740004FF4400100EBD07001EA600080150128B1
:1047500002DD4FF0FF3000E013D0401C36D002984D
:1047600060B3BBF1000F0CD14A460120002100F0DC
:1047700007F928402140084301D0012000E0002033
:10478000E0B101204A46002100F0FAF80346401942
:104790000A4661412D1A8C4111D3B9F1400F09DD50
:1047A000159810F0240F02D0AAF1340603E0AAF104
:1047B000170600E0761C00254FF0004406E05B1E63
:1047C00042F1FF3220EA030521EA0204CAF10100A6
:1047D000B04206DA1B49039808430190002000907C
:1047E0000EE0039AC4F3D321E80A0A43164940EACB
:1047F00044500A433146CDE90002684600F050FDBE
:10480000159810F0240F0BD01598C00715D13868F3
:10481000DDE90012031D3B600068C0E900120CE0F6
:1048200002A8694600F0F0FC1598C00705D1386869
:10483000029A011D3960006802604046F0E60000FF
:1048400002FCFFFF0000F07F0000F03F2DE9FF4F6A
:1048500092461D4685B04FF00041DDE9124BDDE97F
:1048600014727F1E01EA4B50414940F0FF4940EA73
:104870000108002122F020004928049102D04E288E
:1048800028D04CE03BA0012607C88DE80700A969A5
:104890000698641C88477F1E014606D41DF8060052
:1048A00018B121F0200181420BD0E96906988847B0
:1048B000032E34D0082E32D06FF0010009B0BDE8CD
:1048C000F08F761C032E01D0082EE0D1601CCAF8B0
:1048D0000000DCE7A9690698641C88477F1E2AD47B
:1048E00020F02000412826D1A9690698641C884739
:1048F0007F1E20D420F020004E281CD1A9690698E4
:10490000641C88477F1E48F4002849F48009CAF8CF
:10491000004001D4282806D0E969069888475FEA54
:10492000CB7012D022E0A9690698641C88477F1ECC
:1049300001D4002803DAE96906988847BCE72928EA
:10494000F1D1641CCAF80040E9E71BF0240F07D03E
:1049500028680499031D2B600068C0E9001805E071
:104960002868021D2A600068C0F800902046A5E76C
:104970000000F07F494E46494E495459000000005E
:10498000B2F120030AD5C2F1200301FA02F120FAA4
:1049900003F300FA02F041EA0301704700FA03F161
:1049A0004FF0000070475FEA400C08BF91F0000F25
:1049B0004FEA8C234FEAC12243EA51514FEA1C507F
:1049C00018BF00F5F0404FEA300018BF41F0004139
:1049D0005FEA6C5C00F02980BCF1FF3F08BF40F04B
:1049E00080407047130C06BF12044FF0100C4FF0BC
:1049F000000C130E04BF12020CF1080C130F04BFBD
:104A000012010CF1040C930F04BF92000CF1020C84
:104A1000D30F04BF52000CF1010C11464FF00002FD
:104A2000A0F11F00A0EB0C00704711F0004F08BF71
:104A3000704731F000413FF4D5AF0B0C06BF0904BD
:104A40004FF0100C4FF0000C0B0E04BF09020CF1DC
:104A5000080C0B0F04BF09010CF1040C8B0F04BFF1
:104A600089000CF1020CCB0F04BF49000CF1010CC2
:104A7000CCF12003A0EB0C0022FA03F302FA0CF2B3
:104A800041EA030100F10100704720F07F4C80EA09
:104A9000030023F07F47ACEB070303F57C5300F0E2
:104AA000004003F1FF032DE980494FEA154B09B49B
:104AB0004FEA144325EA0B4E24EA03480FF204267A
:104AC00006EB132749083E785FEA320203FB0667CC
:104AD000C7F5000707FB06F64FEA54374FEAD646FC
:104AE00006F1020607FB066CCCF1005C4FEA1C479E
:104AF0002CEA074C07FB06F40CFB06F504EB154605
:104B00004FEA961634BF00204FF000404FEAD137ED
:104B100006FB07FC4FEA1C4C0CFB0BF7D21B03FBFC
:104B20000CF761EB07010CFB0EF7B0EB074072EBE3
:104B300017420CFB08F734BFA2EB0742B2EB074267
:104B400061EB17414FEA0C444FEA910706FB07FC63
:104B50004FEA1C4C0CFB0BF7B0EBC74072EB573223
:104B600003FB0CF734BFA2EBC742B2EBC74261EBC9
:104B700057310CFB0EF7B0EBC70072EB57720CFB12
:104B800008F734BFA2EBC702B2EBC70261EB577163
:104B9000039F4FEA816141EA921104EBCC044FEA92
:104BA000D1374FEA826206FB07FC42EA90124FEAD5
:104BB00080604FEA1C4C0CFB0BF7D21B03FB0CF77D
:104BC00061EB07010CFB0EF7B0EB074072EB1742ED
:104BD0000CFB08F734BFA2EB0742B2EB074261EBD4
:104BE00017414FEA8C554FEA910704EB9C2406FBD2
:104BF00007FC4FEA1C4C0CFB0BF7B0EBC74072EB09
:104C0000573203FB0CF734BFA2EBC742B2EBC742EB
:104C100061EB57310CFB0EF7B0EBC70072EB57722C
:104C20000CFB08F734BFA2EBC702B2EBC70261EB83
:104C3000577115EB4C254FEA816141EA92114FEA19
:104C400082624FEAD13742EA901206FB07FC44F138
:104C500000044FEA80604FEA1C4C0CFB0BF7D21BA0
:104C600003FB0CF761EB07010CFB0EF7B0EB074001
:104C700072EB17420CFB08F734BFA2EB0742B2EB12
:104C8000074261EB174115EB1C154FEA813141EAF0
:104C900092414FEA823242EA90424FEA80304FEA34
:104CA0000C7644F1000448EA03434EEA0B484FF007
:104CB000000EB2EB080C71EB030724BF62463946C5
:104CC0004EEB0E0E4FF0000B0018524149414BEBDA
:104CD0000B0BB2EB080C71EB03077BF1000B24BF4D
:104CE000624639464EEB0E0E4FF0000B0018524153
:104CF00049414BEB0B0BB2EB080C71EB03077BF15B
:104D0000000B24BF624639464EEB0E0E51EA0207F5
:104D100018BF46F0010616EB0E7655F1000254F16D
:104D2000000103D5BDE88901BDE80088BDE889011F
:104D3000BDE80048B619524141EB0101A3F101035E
:104D4000704780807F7E7D7C7B7A797877767675F8
:104D50007473727171706F6E6E6D6C6C6B6A6A6970
:104D60006868676666656464636362616160605F0A
:104D70005F5E5E5D5D5C5C5B5B5A5A595958585783
:104D800057565655555554545353525252515150EB
:104D900050504F4F4F4E4E4D4D4D4C4C4C4B4B4B3E
:104DA0004A4A4A4949494848484747474746464684
:104DB00045454544444444434343434242424241BF
:104DC0004141000046EA0646A3F570534FEA1646F5
:104DD00046EA42564FEAD22242EA415210B54FEA21
:104DE000D121A3F1010300F017F820F0004000F1F9
:104DF000010C00F0004701EB00501146BCF5006FBC
:104E000040EA070000D210BD02484FF0000140EA1E
:104E1000070010BD0000F07F002B26D4770021D0C2
:104E20001CB54FEA370703B44FF010004FF01001E4
:104E30004FF000000FBCBDE810400BF1010BBBF1BF
:104E4000010F08BF5FEA170722BF12F1010211F13B
:104E500001014FF0004143F1000300F0004043EA3C
:104E600000007047F9D35708DAE746EA064613F11F
:104E7000400F4FEA16461FDD13F1200FDFBF164328
:104E80000A46002120335B42C8D0C3F1200746EA1E
:104E9000064602FA07F74FEA164646EA0706C3F146
:104EA000200722FA03F201FA07F721FA03F14FF083
:104EB000000342EA0702B1E746EA020646EA06466E
:104EC0004FEA164646EA0106BCBF46EA0646360CDD
:104ED0004FF000034FF000024FF000019EE72DE974
:104EE000C048934630B491E8380007C831EA400C16
:104EF00048BF34EA430C03D5FFF7C7FDFFF78CFF2B
:104F0000F0BCBDE800882DE9C048934630B491E874
:104F1000380007C831EA400C48BF34EA430C03D5D7
:104F2000FFF7B3FDFFF74EFFF0BCBDE800882DE9A9
:104F3000C048934630B491E8380007C810F0804F5D
:104F400008BF13F0804F03D100F019F8FFF764FF9A
:104F5000F0BCBDE800882DE9C048934630B491E824
:104F6000380007C810F0804F08BF13F0804F03D1FE
:104F700000F005F8FFF726FFF0BCBDE8008820F040
:104F80007F4780EA030023F07F4C07EB0C03A3F577
:104F90007C5300F00040A3F1FE0392F0000F00F0FC
:104FA000B38095F0000F00F077802DE901494FEABA
:104FB00011404FEA144621EA004800FB06FC24EAAF
:104FC000064708FB06F607FB08F800FB07F718EB97
:104FD00006484CEB164C4FEA124B18EB07484FEAC9
:104FE00015464CEB174022EA0B4E0BFB06FC25EA5C
:104FF00006470EFB06F607FB0EFE0BFB07F71EEB44
:10500000064E4CEB164C4FF000061EEB074E4CEBD9
:10501000174B18EB0B0840F1000018EB0E0B58EB88
:10502000000840F100008F1A4FF000013CBFC94357
:10503000661B14BFB5EB040C00213CBFC943F61B33
:105040004FEA17444EEA8E0E27EA04454FEA1C4702
:1050500004FB07622CEA074C05FB07F70CFB05F67F
:1050600004FB0CFC16EB074642EB174216EB0C4612
:1050700042EB1C421BEB060658EB0202414146EA9A
:105080009E0601D5BDE80189B619524141EB0101E7
:10509000A3F10103BDE801894FEA14454FEA114726
:1050A00024EA054621EA074C05FB07F406FB07F74F
:1050B0000CFB06F105FB0CFC11EB074144EB17441C
:1050C0004FEA124711EB0C4144EB1C4422EA074C17
:1050D00005FB07F206FB07F70CFB06F605FB0CFCCD
:1050E00016EB074642EB174216EB0C4642EB1C450B
:1050F0006A1854F1000148BF7047B619524141EB9C
:105100000101A3F10103704795F0000F37D04FEA7A
:1051100011424FEA144721EA024624EA074C02FBF7
:1051200007F106FB07F70CFB06F402FB0CFC14EB83
:10513000074441EB17414FEA154714EB0C4441EB90
:105140001C4125EA074C02FB07F506FB07F70CFBA1
:1051500006F602FB0CFC16EB074645EB174516EB73
:105160000C4645EB1C42121951F1000148BF704733
:10517000B619524141EB0101A3F1010370474FEA17
:1051800014454FEA114724EA054621EA074C05FB7E
:1051900007F106FB07F70CFB06F24FF0000605FBD4
:1051A0000CFC12EB074241EB174112EB0C4251EBA6
:1051B0001C4148BF7047921841EB0101A3F1010364
:1051C0007047490050EAC12018BF04204A0D18BF9B
:1051D00040F0010040F2FF72B2EB515F08BF40F0B7
:1051E0000200012808BF0520704740F2013200206C
:1051F0004FF0E04100F002BE024A0020110700F02B
:10520000FDBD000001FDFFFF10B50446D1E900011E
:1052100000F002F8206010BDF8B504460D466A465D
:1052200000F066F800987E30009000281FDC002215
:1052300013462046294600F08BFA18D0002140F68C
:1052400008004FF0000006462046294600F0E2F82C
:10525000044640F6080006EA00014FF0000034F072
:10526000004004BF0220FEF71EF92046F8BD00985A
:10527000FF280DDB0220FEF716F900221346204618
:10528000294600F01DFC8CBF04484FF0FF40F8BDDC
:1052900020462946BDE8F84000F0BCB8000080FF79
:1052A00010B504460A46D4E90003194600F04CF84C
:1052B000C4E9000110BD30380A2801D2012070472E
:1052C0000020704730B583B00446FEF7E7F8054686
:1052D0000020CDE90000024621466846FEF724FC86
:1052E0002846FEF7E0F8DDE9000103B030BD00001C
:1052F00010B5144600222260114A21F00043934267
:10530000A8BF10BD53EA000208BF10BDB3F5801F4F
:10531000A8BF226807DA362200F070FD6FF0350270
:1053200021F000432260DFF81CC06FF31E510CEB2C
:1053300023531A4441F0FF5141F00051226010BD47
:105340000000F07F02FCFFFF2DE9F04106460C460D
:1053500040F2FF75174635EA14502BD00022134651
:10536000304600F0F5F925D03A463046214600F0A7
:1053700045FD06460C4635EA145010D0002213466F
:10538000304600F0E5F915D10220FEF78CF8FFF762
:1053900033FF0A46214662F31E01BDE8F081022078
:1053A000FEF781F8FFF721FF0A46214662F31E014E
:1053B000BDE8F08130462146BDE8F08110B50029F6
:1053C0000AD00878002807D005487844FFF76EF81F
:1053D000002801D0002010BD0248784410BD000014
:1053E000E20B0000DA0B000010B500290AD00878A3
:1053F000002807D005487844FFF758F8002801D066
:10540000002010BD0248784410BD0000D20B0000FF
:10541000CA0B000021F00042A2F16052B2F5801FD9
:1054200001F0004328BFD2F17F6C0BD95FEA001C6A
:1054300043EAC20242EB507018BF704728BF20F009
:1054400001007047B2F5801FBCBF184670474FEA95
:10545000410C1CF5001F02D2084600F065BC70B577
:1054600000F0DAFA00000089FFF7F6BF4FF00040C5
:10547000A0F580007047000002494FF0000000F0E6
:105480008BBC00BF0000F87F491058BFC1F14041FC
:105490005B1058BFC3F140438B42EFF3008070476D
:1054A0002DE9C04130B4DFF8A0C23CEA111418BFA6
:1054B0003CEA131400F0EC8081EA03051CEA1114A5
:1054C00044EAD57418BF1CEA131500F0C780A4EB9A
:1054D00005044FF0004545EAC12145EAC32341EAEE
:1054E000505143EA525304F17F74994204F5003459
:1054F0004FEAC0204FEAC22208BF904200F09C80D1
:105500004FEA13650FF24016765D4FEA134506FB2E
:1055100005F7C7F1807706FB07F74FEAD737A7FBF8
:1055200003687642C8F58038A7FB06CE38BFA8F1DD
:10553000010807FB08E64FF0000EA6FB028CE6FB15
:1055400003CEDCF1000CCEF1004E38BFAEF1010EFF
:10555000A6FB0C584FF000074FF00005E6FB0E8746
:10556000A1FB08C6A0FB07CE16EB0E0645F1000511
:10557000E1FB076515F1E04E7EBFA4F580345FEADC
:1055800046066D4116F1800745F100054FEA1727E1
:105590004FEA066647EA0567A6F1DE46B6F1805F88
:1055A0004FEA15251FD9384624F0010C05EBC471CC
:1055B000BCF1FE6F01EB0C1102D8F0BCBDE800811C
:1055C00024425CBF01F5801E9EEAC47F02D4F0BC79
:1055D000BDE80081244238D4F0BCA1F1C041BDE84F
:1055E000004100F067BA4FEAD22242EA43524FEA42
:1055F000D323A7FB02864FEAD02040EA415007FBA5
:1056000003661EEA0E0F4FEAD12105FB026658BF62
:10561000A6EB0056B6EB00564FEA520E4EEAC37E9A
:1056200018EB0E0E56EB530EBDD518EB02085E417B
:105630007F1C55F10005B6E74FF480154FF00007C9
:105640004FF000064FF00008ADE7F0BC4FF000004F
:1056500001F1C04101F00041BDE8008111EA0C1FD9
:105660000CEA131500D00CE013EA0C1F00F02580A3
:105670004FF00000F0BC81EA030101F00041BDE8F9
:105680000081F0BCBDE8004181EA030100F012BADC
:10569000F0BCBDE8004170B500F0BEF9097EFC3EEB
:1056A00000F007B881EA03014FF0000001F000416B
:1056B000704781EA030100F0FDB9F0BCBDE800418C
:1056C0004FF0000021497047FFFDFBF9F7F5F4F2B8
:1056D000F0EEEDEBE9E8E6E4E3E1E0DEDDDBDAD88D
:1056E000D7D5D4D3D1D0CFCDCCCBCAC8C7C6C5C4EB
:1056F000C2C1C0BFBEBDBCBBBAB9B8B7B6B5B4B302
:10570000B2B1B0AFAEADACABAAA9A8A8A7A6A5A4EC
:10571000A3A3A2A1A09F9F9E9D9C9C9B9A999998B0
:105720009797969595949393929191908F8F8E8E53
:105730008D8C8C8B8B8A89898888878786858584E0
:1057400084838382828181800000FF070000F87FCC
:1057500051EA030C17D41CF5801F58BFBCF5801FFD
:1057600000F10680994218BF704708BF9042704709
:1057700007D711F5801F58BF13F5801F19D4994220
:105780007047894270471CF5801F08D5BCF5801F03
:10579000F7D58B4218BF704708BF824270474FF45D
:1057A000001C1CEB410F38BF1CEB430F01D28B4296
:1057B000704770B500F030F9922449004FF0005165
:1057C0004FF08053FFF760BE4FEA41034FEA535357
:1057D000A3F58063D3F11E03C8BFD3F1210C0CDD08
:1057E0004FF0004242EAC12242EA505232FA03FC30
:1057F0008CEAE17CACEBE1707047102BC4BF002059
:10580000704703F5787CBCF1FF3F04D06FF0004295
:1058100082EA2100704770B500F0FEF849922480BA
:1058200000207047F2E7B0FA80F310FA03F10AD0D3
:10583000C3F11D0303F580634FEA41504FEA035261
:1058400002EBD12170474FF00000704751EA030C82
:1058500017D41CF5801F58BFBCF5801F00F10680CF
:10586000994218BF704708BF9042704707D711F59B
:10587000801F58BF13F5801F19D499427047894281
:1058800070471CF5801F08D5BCF5801FF7D58B42EB
:1058900018BF704708BF824270474FF4001C1CEBD2
:1058A000410F38BF1CEB430F01D28B42704770B5DC
:1058B00000F0B2F8922449004FF000514FF08053AD
:1058C000FFF7E2BDDFF848C170B51CEA111E1EBF2C
:1058D0001CEA13159EEA0C0F95EA0C0F00F06F807E
:1058E00081EA030423EA4C134EEAD47E21EA4C11E8
:1058F00041F4801143F48013AE44A1FB024CA0FBA1
:105900000365AEF17F7E361955EB0C05A1FB034C08
:105910004CF10003A0FB021C16EB0C06654153F191
:105920000003094218BF46F0010613F4007F0BD1B3
:105930004FEA03314FEA0530340341EA155140EA9A
:1059400016506FF003020AE04FEAC3214FEAC52068
:10595000F40241EA555140EA56506FF0020202EB60
:105960002E4201EB025585EACE710AD05FEA440C63
:1059700018BF24F0004450F1000041F1000120EA7A
:10598000D47040F2FE7C624500D270BDA84214BFC4
:105990004FF080444FF04044002E08BF0024BEF179
:1059A000806FA8BFA1F1C041BDE8704080F2828045
:1059B0004FF0000001F1C04101F0004170479EEA44
:1059C0000C0F0CEA131518BF95EA0C0F06D04FF018
:1059D000000081EA030E0EF0004170BD00F01CF8DB
:1059E0008900013E00F007B800F009B84FEA430C07
:1059F0005FEA5C5C08D081EA030100F05BB84FEA23
:105A0000410C5FEA5C5CF6D14FF000000149704741
:105A10000000FF070000F87F0EF1020E2EF0030ECB
:105A20005EF8046B364205D4012A43EB030515F5F5
:105A3000001F12D8012841EB010C1CF5001F0CD8E7
:105A40000ED14FEAD17C15F5001F0CEB4C0C0CF17C
:105A5000020C08BF4CEBD37C04E04FF0080C01E0D3
:105A60004FEAD37C0CEB4C0526FA05F606F0070648
:105A7000B6F1040C06D20EEB860CBDE870404CF07B
:105A8000010C6047DFE80CF0090B02024FF0004107
:105A90004FF00000A1F5002170BD19461046012805
:105AA00051EB010418BFD4F5001484BF002001F0AD
:105AB000004170BD0808A0F500114FEA31017047A0
:105AC00053EA010C17D41CF5801F58BFBCF5801F8A
:105AD00000F106808B4218BF704708BF82427047B2
