:020000040800F2
:1000000030100020DD010008010C0008F90700088D
:100010004D080008BD0600087F140008000000001D
:10002000000000000000000000000000BD0F0008FC
:10003000DD06000800000000650E0008D110000871
:10004000F7010008F7010008F7010008F7010008B0
:10005000F7010008F7010008F7010008F7010008A0
:10006000F7010008F7010008F7010008F701000890
:10007000F7010008F7010008F7010008F701000880
:10008000F7010008F7010008F7010008F701000870
:10009000F7010008F7010008F7010008F701000860
:1000A000F7010008F7010008F7010008F701000850
:1000B000F7010008F7010008F7010008F701000840
:1000C000F7010008F7010008F7010008F701000830
:1000D000F701000835110008BD110008F7010008FC
:1000E000F7010008F7010008F7010008F701000810
:1000F000F7010008F7010008F7010008F701000800
:10010000F7010008F7010008F7010008F7010008EF
:10011000F7010008F7010008F7010008F7010008DF
:10012000F7010008F7010008F7010008F7010008CF
:1001300000F002F800F042F80AA090E8000C8244B7
:100140008344AAF10107DA4501D100F037F8AFF294
:10015000090EBAE80F0013F0010F18BFFB1A43F0A5
:1001600001031847CC150000EC150000103A24BF1D
:1001700078C878C1FAD8520724BF30C830C144BF0C
:1001800004680C607047000000230024002500264E
:10019000103A28BF78C1FBD8520728BF30C148BFEA
:1001A0000B607047642900F06F80782900F0D380DD
:1001B000002070471FB51FBD10B510BD00F04CFAF0
:1001C0001146FFF7F7FF01F0BBF900F06AFA03B43C
:1001D000FFF7F2FF03BC01F05BF90000094880471C
:1001E00009480047FEE7FEE7FEE7FEE7FEE7FEE719
:1001F000FEE7FEE7FEE7FEE704480549054A064B31
:1002000070470000D510000831010008300A0020B6
:1002100030100020300C0020300C0020704700000F
:100220000FB4044910B503AA029800F0FFF910BCFE
:100230005DF814FB1800002070B50446856900685D
:10024000C10601D5302600E02026C00707D070BDCA
:10025000D4E9012130469047206A401C20626D1E7F
:10026000F6D570BD70B5044685690078C00707D122
:1002700070BDD4E9012120209047206A401C2062F3
:100280006D1EF6D570BD00002DE9F0410646002434
:1002900010687529314616A510D0AFF300800028EC
:1002A00002DA404213A507E031688A0701D512A59A
:1002B00002E0490704D511A5012401E0AFF3008055
:1002C00000210A2206F1240709E0B0FBF2FCB0FB92
:1002D000F2F302FB1C00303078541846491C002809
:1002E000F3D123462A463046BDE8F04100F02CB950
:1002F000000000002D0000002B0000002000000086
:10030000F0B40D460188090502D5214C7C4402E079
:100310001F4C7C440E34002100F1240608E002F05A
:100320000F071209E75D42EA03721B097754491C63
:1003300052EA0307F3D102780023120704D5702D87
:1003400006D009B1022311342246F0BC00F0FCB8FB
:1003500001231034F8E770B504460D4621461068B5
:10036000AFF30080024629462046BDE870400023D6
:10037000C6E7D21D22F00703D3E90023C0E70368D4
:10038000126843F0200303600823C3610023B7E72A
:10039000E41300002DE9F05F894604464FF0000A9F
:1003A000DFF874B1FB44C0F820A02046E16888471C
:1003B000002874D0252806D0D4E901219047206A6E
:1003C000401C2062F1E700265F462046E16888472E
:1003D0002028054607DB312D05D2781910F8200CAE
:1003E00008B10643F1E7B00701D526F00406C4F8CA
:1003F0001CA00027C4F818A02A2D09D0284601F017
:1004000040F838B304EB8708303DC8F8185019E0BD
:1004100059F8041B204604EB87029161E168884784
:10042000012F054618D1E069002820DA26F02006C1
:100430001DE0D8F8180000EB800005EB40003038D4
:10044000C8F818002046E1688847054601F019F809
:100450000028EED1012F0AD02E2D08D12046E168C8
:1004600088477F1C0546022F46F02006C4DBA069A2
:10047000002803DA404246F00106A061F00701D0EF
:1004800026F010066C2D0BD0682D09D04C2D39D0DC
:100490006A2D35D0742D35D07A2D33D016E038E062
:1004A000E1682F4620468847B842054609D16C2F9F
:1004B00026D04FF48060E168064320468847054611
:1004C00004E06C2F1AD04FF4807006430DB3A5F1F1
:1004D0004100192802D8203546F400664A462946CC
:1004E000204626604E46FFF75DFE80B101280BD006
:1004F000F61D26F0070000F1080956E74020E4E762
:100500008020D8E70020D6E706F104094DE7284609
:1005100052E7206ABDE8F09F7413000030B505462D
:100520000B462A4613F8014B12F8010B08B1A04202
:10053000F8D01CB1002802D06D1CF1E7284630BD70
:1005400070477047704770472DE9F0470D46994650
:100550009246044600F124080168880604D5E06943
:1005600021F01001216000E00120A84201DD471BBD
:1005700000E00027A1697A1902EB0900081AA061BE
:100580002078C00602D42046FFF756FE002608E079
:10059000D4E901211AF806009047206A401C761C15
:1005A00020624E45F4DB2078C0060AD52046FFF7CE
:1005B00043FE06E0D4E9012130209047206A401C28
:1005C0002062381EA7F10107F4DC07E0D4E901211D
:1005D00018F805009047206A401C2062281EA5F1EB
:1005E0000105F3DC2046FFF73DFE2078000602D52A
:1005F0000220BDE8F0870120FBE7000001694A1CEA
:1006000002610878704700B58FB0CDE90131002153
:10061000059105497944CDE9031011466846FFF775
:10062000B9FE0FB000BD0000E5FFFFFF074B70B53E
:100630000D467B44FFF7E7FF0446284600F008F824
:1006400010B14FF0FF3070BD204670BDEF0E0000BE
:10065000007B00F080007047754600F02BF8AE4636
:1006600005006946534620F00700854618B020B5BE
:10067000FFF7C2FDBDE820404FF000064FF0000735
:100680004FF000084FF0000B21F00701AC46ACE83A
:10069000C009ACE8C009ACE8C009ACE8C0098D46A7
:1006A000704710B50446AFF300802046BDE8104007
:1006B000FFF78DBD00487047D009002000BFFEE75E
:1006C00010B50246002003E012F8014B231898B23F
:1006D0000B1EA1F10104A1B2F6D110BD70472DE9A6
:1006E000F0410246002500260020002300240027B8
:1006F00091F803C00CF00F0591F803C00CF0100C3A
:10070000BCF1000F03D091F802C04CEA050591F846
:1007100000C0BCF1000F31D0146800202BE04FF076
:10072000010C0CFA00F3B1F800C00CEA03069E427B
:1007300020D183004FF00F0C0CFA03F7BC4305FAED
:1007400003FC4CEA040491F803C0BCF1280F06D165
:100750004FF0010C0CFA00FCC2F814C00AE091F84A
:1007600003C0BCF1480F05D14FF0010C0CFA00FC9E
:10077000C2F810C0401C0828D1D31460B1F800C0E2
:10078000BCF1FF0F34DD546800202EE000F1080CAE
:100790004FF0010808FA0CF3B1F800C00CEA0306A8
:1007A0009E4221D183004FF00F0C0CFA03F7BC439B
:1007B00005FA03FC4CEA040491F803C0BCF1280FCD
:1007C00005D100F1080C08FA0CF8C2F8148091F871
:1007D00003C0BCF1480F07D100F1080C4FF001082D
:1007E00008FA0CF8C2F81080401C0828CED35460D8
:1007F000BDE8F0810161704700BFFEE708B5012147
:10080000242000F051FB4FF48070ADF80000102060
:100810008DF8030003208DF8020069460948FFF7B0
:100820005EFF4FF480710748FFF7E4FF0420ADF846
:10083000000069460448FFF752FF04210248FFF711
:10084000D9FF08BD000801400014014000BFFEE7C9
:1008500038B50020009000244FF4E13000F0D4FEC1
:100860000A2000F039FE04E0C82000F035FE601CCC
:10087000C4B26B46022203214FF6FF7000F01AF853
:1008800008B10A2CF0DBBDF80000094948800024BB
:1008900004E0C82000F020FE601CC4B2044948886F
:1008A00001220A2100F05CF908B1142CF1DB38BDFB
:1008B000680700202DE9F04704460E461746984683
:1008C0004FF0000AD14651201B4908700A20487099
:1008D00020128870CC70002008710846467187711C
:1008E0000721FFF7EDFE81464FEA19201249C87132
:1008F00081F80890002511A0FFF792FC00BF05E0E9
:100900000D48415D0FA0FFF78BFC6D1C092DF7DB37
:100910000EA0FFF785FC0020074981F85802A1F8D6
:100920005A020921044800F0CDFE404600F010F8BC
:1009300082465046BDE8F087740700200D0A7264B5
:100940003A00000025327820000000000D0A000067
:100950002DE9FC5F8246002500200190002400263E
:10096000002780468146834600900BE0012000F07E
:10097000B3FD681C85B241F28830854202D1012066
:100980000190BFE0704890F858020028EED06E4801
:10099000B0F85A92B9F1080F02DBB9F5877F02DD92
:1009A00002200190AEE0002500BF6848405D552858
:1009B00005D16648691C405C0A2800D10AE0A9F10B
:1009C0000200A84202D0681C85B202E00320019018
:1009D00098E0EAE700BF2C46A9EB040086B2082E97
:1009E00002DBB6F5877F02DD022001908AE05748DE
:1009F000211D475CF7BBE11D10F8018008F10A00DA
:100A0000B04202DD032001907CE008F1080291B2BF
:100A10004E4A1019FFF754FE009004EB080009300D
:100A20004A490A5C04EB080108314848405C02EB83
:100A300000201FFA80FB009858451CD14348E11D57
:100A4000405C012805D14148491C405CAAF80000DF
:100A50000DE03E48E11D405C022808D13B48891C5E
:100A6000425C491E405C02EB0020AAF80000002016
:100A7000019046E002E00420019042E0012F17D1EE
:100A8000324908190621FFF71BFE00902F48E11D8F
:100A9000425CA11D405C02EB00201FFA80FB009825
:100AA000584502D1002001902BE00420019028E05D
:100AB000FF2F24D12548A11C405CFF281CD12348CE
:100AC000E11C405CFF2817D1204908190621FFF7D7
:100AD000F7FD00901D48E11D425CA11D405C02EB4A
:100AE00000201FFA80FB0098584502D10520019094
:100AF00007E00420019004E00320019001E00320BE
:100B0000019000BF0198B0B9012F01D1082601E082
:100B1000301986B20EA0FFF783FB254606E00B488E
:100B2000415D0CA0FFF77CFB681C85B2B542F6DB8B
:100B30000AA0FFF775FB0020034981F85802A1F8CD
:100B40005A020198BDE8FC9F74070020A00800200D
:100B500072703A0025327820000000000D0A000073
:100B60002DE9F04704460E4617464FF00009C846E7
:100B700051201D4908700A20487020128870CC70DE
:100B80000120087108464671012088710846C77126
:100B90000821FFF795FD80464FEA18201249087298
:100BA00081F8098011A0FFF73BFB002500BF05E09D
:100BB0000D48415D0FA0FFF733FB6D1C0A2DF7DBDD
:100BC0000EA0FFF72DFB0020074981F85802A1F87D
:100BD0005A020A21044800F075FD0020FFF7B8FE14
:100BE00081464846BDE8F087740700200D0A776407
:100BF0003A00000025327820000000000D0A0000B5
:100C0000704710B54FF4A06000F03AF810BD000036
:100C100070B5002100230F22C47804B3154C24685A
:100C200004F4E064C4F5E064210AC1F10403CA409D
:100C3000447804FA03F184781440214309010E4CEE
:100C40000678A155047804F01F050124AC4005780E
:100C50006D11AD0005F1E025C5F8004109E004780B
:100C600004F01F050124AC40044D0678761145F8C8
:100C7000264070BD0CED00E000E400E080E100E003
:100C800002490143024A1160704700000000FA0562
:100C90000CED00E008B5002400200090002500269F
:100CA00040A0FFF7BDFA01250BE044494888052222
:100CB0000121FFF755FF0546642000F00DFC701C74
:100CC000C6B20DB10A2EF0DB1DB93DA0FFF7A8FAA0
:100CD00003E029463FA0FFF7A3FA384948880322DA
:100CE0000821FFF73DFF05461DB940A0FFF798FA20
:100CF00003E0294642A0FFF793FA304948880022D2
:100D00000A21FFF72DFF05461DB943A0FFF788FA1A
:100D100003E0294645A0FFF783FA04E0642000F0D1
:100D2000DBFB701CC6B2254948886B4601220A21AC
:100D3000FFF7C0FD08B10A2EF0DB31E0414890F822
:100D4000580268B340A14148FFF7E8FB044610E0B1
:100D5000207830280CDB2078392809DC20783038DE
:100D6000BDF8001001EB810100EB410080B2009062
:100D7000641C20786D28EBD1BDF8001034A0FFF77B
:100D80004FFA002000902F4981F85802A1F85A022A
:100D90003348006808B9012000E0002030490860AD
:100DA000CCE700000D0A4E6F726D616CC4A3CABD22
:100DB000B2E2CAD40D0A0D0A000000006807002044
:100DC000BBD8B4ABCBD9C2CAC9E8D6C3204F4B0DF0
:100DD0000A000000BBD8B4ABCBD9C2CAC9E8D6C39D
:100DE000204552524F523A25640D0A00B2E2C1BF6B
:100DF000C4A3CABDC9E8D6C3204F4B0D0A000000EA
:100E0000B2E2C1BFC4A3CABDC9E8D6C3204552528D
:100E10004F523A25640D0A00B9A4D7F7C4A3CABD3E
:100E2000C9E8D6C3204F4B0D0A0D0A00B9A4D7F765
:100E3000C4A3CABDC9E8D6C3204552524F523A2571
:100E4000640D0A0074070020643A0000A008002026
:100E50000D0ABEE0C0EB3A2025646D6D0D0A00005E
:100E6000A00121427047000029B1064AD26902431D
:100E7000044BDA6104E0034AD2698243014BDA6130
:100E8000704700000010024029B1064A126902436F
:100E9000044B1A6104E0034A12698243014B1A6150
:100EA000704700000010024029B1064A92690243CF
:100EB000044B9A6104E0034A92698243014B9A61B0
:100EC000704700000010024029B1064AD268024370
:100ED000044BDA6004E0034AD2688243014BDA60D3
:100EE000704700000010024030B5002100220024AD
:100EF00000232D4D6D6805F00C0121B1042905D0AA
:100F0000082923D105E0294D056022E0274D056021
:100F10001FE0254D6D6805F47012234D6D6805F4D2
:100F20008034022505EB92421CB9214D55430560E2
:100F30000BE01D4D6D6805F400351DB11C4D55438A
:100F4000056002E0194D5543056002E0174D05604C
:100F500000BF00BF144D6D6805F0F0010909154D83
:100F60006B5C0568DD4045600F4D6D6805F4E06120
:100F7000090A104D6B5C4568DD4085600A4D6D685F
:100F800005F46051C90A0B4D6B5C4568DD40C560D6
:100F9000054D6D6805F44041890B074D6B5CC568D4
:100FA000B5FBF3F5056130BD0010024000127A0078
:100FB00000093D001E0000202E000020704710B5E3
:100FC00000F002F810BD00000CB500200190009068
:100FD0003348006840F480303149086000BF304831
:100FE000006800F4003000900198401C01900098C7
:100FF00018B90198B0F5A06FF1D12948006800F444
:10100000003010B10120009001E000200090009815
:10101000012843D12348006840F0100021490860AE
:101020000846006820F0030008600846006840F0A9
:10103000020008601A48406819494860084640683C
:1010400048600846406840F4806048600846406850
:1010500020F47C1048600846406840F4E81048607E
:101060000846006840F08070086000BF0C480068C7
:1010700000F000700028F9D00948406820F0030013
:10108000074948600846406840F00200486000BFD9
:101090000348406800F00C000828F9D10CBD00009E
:1010A0000010024000200240042808D14FF0E02147
:1010B000096941F004014FF0E022116107E04FF0AF
:1010C000E021096921F004014FF0E022116170472D
:1010D0007047000010B51348006840F00100114946
:1010E000086008464068104908400E4948600846B4
:1010F00000680E4908400B4908600846006820F463
:10110000802008600846406820F4FE0048604FF4E4
:101110001F008860FFF753FF4FF00060044908602C
:1011200010BD0000001002400000FFF8FFFFF6FEB7
:1011300008ED00E010B540F225511D4800F0DEF842
:1011400010B31B4800F096F9C4B21A48008800F4A6
:101150000040C8B91748008800F4804060B10A2CEC
:1011600003D000201349088020E01248008840F492
:1011700000401049088019E00D2C06D10D48008868
:1011800040F480400B49088010E00A480088C0F312
:101190000D0009490C5407480088401C0549088087
:1011A00008460088C72801DD0020088010BD000027
:1011B000003801401C000020A006002010B540F2BD
:1011C00025511F4800F09AF810B31D4800F052F95D
:1011D000C4B21C4890F85802D0B91A48B0F85A0264
:1011E000B0F5957F0DDC1748B0F85A1200F59670EF
:1011F00044541448B0F85A02401C1249A1F85A024B
:1012000006E000200F49A1F85A02012081F8580297
:1012100040F224410A4800F071F878B1084800F023
:1012200029F9C4B20748B0F85A0238B1054890F815
:10123000580218B90120034981F8580210BD000076
:10124000004400407407002021B1828942F400521A
:10125000828104E082894DF6FF731A4082817047D3
:1012600010B504462048844209D101218803FFF7C4
:101270002BFE00214FF48040FFF726FE32E01B4892
:10128000844209D101214804FFF7FEFD00214FF4FB
:101290000030FFF7F9FD25E01548844209D101210E
:1012A0008804FFF7F1FD00214FF48020FFF7ECFDEB
:1012B00018E01048844209D10121C804FFF7E4FD79
:1012C00000214FF40020FFF7DFFD0BE00A488442C5
:1012D00008D101210805FFF7D7FD00214FF4801048
:1012E000FFF7D2FD10BD000000380140004400406F
:1012F00000480040004C00400050004070B50246DD
:10130000002400230025002040F66A16B14200D1D7
:1013100000BFC1F3421501F01F03012606FA03F3D3
:10132000012D02D19689334006E0022D02D1168AA2
:10133000334001E0968A33400C12012606FA04F489
:101340001688344013B10CB1012000E0002070BDBC
:10135000F0B50346002400260025002040F66A1759
:10136000B94200D100BF1846C1F3421401F01F0674
:10137000012707FA06F5012C01D10C3004E0022CFC
:1013800001D1103000E014301AB107682F43076014
:1013900002E00768AF430760F0BD00002DE9F047A9
:1013A00086B005460E460024A24600BFA14600278F
:1013B000B08900B100BF2F462C8A4CF6FF70044064
:1013C000F08804432C82AC894EF6F3100440B088B8
:1013D00031890843718908430443AC81AC8A4FF6D4
:1013E000FF400440B0890443AC8201A8FFF77CFDB4
:1013F0001F48874202D1DDF810A001E0DDF80CA003
:10140000A88900F4004040B10AEBCA0000EB0A10C2
:1014100031684900B0FBF1F807E00AEBCA0000EBC5
:101420000A1031688900B0FBF1F86420B8FBF0F0D5
:1014300004012009642101FB1089A88900F40040FF
:1014400040B1322000EBC900B0FBF1F000F0070022
:10145000044308E0322000EB09106421B0FBF1F0F6
:1014600000F00F0004432C8106B0BDE8F0870000B7
:101470000038014001468888C0F30800704700BF6B
:10148000FEE730380A2801D201207047002070475B
:1014900000BF704710B56FF00400FFF705FE0A4863
:1014A00000680A49B0FBF1F0094908700846007865
:1014B00000EB4001C1EBC0104FF6FF7101EAC00024
:1014C0000449088010BD00000000002000127A00CE
:1014D00014000020160000200146114A12884A43D9
:1014E0004FF0E0235A6100229A611A46126942F0D5
:1014F00001021A6100BF4FF0E022106900F0010202
:101500001AB100F48032002AF5D04FF0E0221269BF
:1015100022F001024FF0E0231A6100229A61704725
:101520001600002000BF054A128802F04002002A7F
:10153000F9D0C2B2014B1B1D1A8070470038014020
:10154000FFF75FFBFFF7A6FF4FF4E13000F008F86C
:10155000FFF754F9FFF77CF901E0FFF79BFBFCE78D
:1015600010B586B00446012144F20400FFF79CFC4C
:101570002348FFF775FE4FF40070ADF81400032008
:101580008DF8160018208DF8170005A91D48FFF7E3
:10159000A6F84FF48060ADF8140004208DF8170011
:1015A00005A91848FFF79BF825208DF800000320B7
:1015B0008DF801008DF8020001208DF803006846C7
:1015C000FFF726FB01940020ADF80800ADF80A00F3
:1015D000ADF80C00ADF810000C20ADF80E0001A91C
:1015E0000748FFF7DBFE012240F225510448FFF7D0
:1015F000AFFE01210248FFF727FE06B010BD000034
:1016000000380140000801401CB5044601210420B7
:10161000FFF74AFC01214804FFF726FC2548FFF7A5
:101620001FFE0420ADF8000003208DF802001820F2
:101630008DF8030069462048FFF751F80820ADF8FF
:10164000000048208DF8030069461B48FFF747F863
:101650001A480460002019498880C8800881888160
:101660000C2048811348FFF799FE01211148FFF72C
:10167000EBFD012240F225510E48FFF769FE0122E1
:1016800040F224410B48FFF763FE26208DF804004A
:1016900002208DF8050003208DF8060001208DF84A
:1016A000070001A8FFF7B4FA0020054981F85802A5
:1016B0001CBD0000004400400008014090060020CE
:1016C0007407002010B50246002000BF0CE000BFE8
:1016D000074B1B8803F04003002BF9D0135C044C2C
:1016E000241D2380431CD8B28842F0DB10BD0000CB
:1016F00000440040303132333435363738394142D6
:101700004344454640305800303132333435363763
:10171000383961626364656640307800040000080F
:1017200000000000000000020001000010000000A6
:101730005017000800000020340000006C01000871
:101740008417000834000020FC0F00008801000806
:1017500000A24A040000000000000000010203048F
:10176000060708090000000000000000000000005B
:101770000000010203040102030406070809020431
:041780000608000057
:0400000508000131BD
:00000001FF
