:020000040800F2
:10000000381800201D020008C12200085D100008F9
:100010002D130008550C0008512E000800000000A8
:10002000000000000000000000000000AD240008F7
:10003000F90C00080000000055230008C125000845
:1000400037020008370200083702000837020008AC
:100050003702000837020008FD0C000837020008CC
:10006000370200083702000837020008370200088C
:10007000370200083702000837020008370200087C
:10008000370200083702000837020008370200086C
:10009000370200083702000837020008370200085C
:1000A000370200083702000837020008370200084C
:1000B000370200082526000837020008370200082A
:1000C000370200083702000837020008370200082C
:1000D000370200088D2A0008D92A0008652B00087D
:1000E000370200083702000837020008370200080C
:1000F00037020008370200083702000837020008FC
:1001000037020008370200083702000837020008EB
:1001100075290008012A0008370200083702000884
:1001200037020008370200083702000837020008CB
:1001300000F002F800F062F80AA090E8000C824497
:100140008344AAF10107DA4501D100F057F8AFF274
:10015000090EBAE80F0013F0010F18BFFB1A43F0A5
:1001600001031847DC390000FC390000103A24BFB5
:1001700078C878C1FAD8520724BF30C830C144BF0C
:1001800004680C607047000000230024002500264E
:10019000103A28BF78C1FBD8520728BF30C148BFEA
:1001A0000B607047692900F0DF80642900F0DC8073
:1001B000752900F0D9806F2900F09281782900F02C
:1001C000D0810368DB0928BF41F08001632900F07A
:1001D000D883732900F0DD83E32900F0FB8300203E
:1001E00070471FB500F054FC04000020002103F00C
:1001F00039FB401C60601FBD10B510BD00F022FC33
:100200001146FFF7EEFF03F0ABF800F045FC03B436
:10021000FFF7F2FF03BC02F024FE0000094880470C
:1002200009480047FEE7FEE7FEE7FEE7FEE7FEE7D8
:10023000FEE7FEE7FEE7FEE704480549054A064BF0
:1002400070470000C5250008310100083812002061
:10025000381800203814002038140020704700009F
:100260000FB4044910B503AA029800F097FB10BC24
:100270005DF814FB240000200FB41CB5084B06AA3F
:100280007B4469460090059800F059FB0446002025
:10029000694600F067FB20461CBC5DF814FB0000BB
:1002A000E106000070B5044685690068C10601D505
:1002B000302600E02026C00707D070BDD4E9012118
:1002C00030469047206A401C20626D1EF6D570BDF6
:1002D00070B5044685690078C00707D170BDD4E9C0
:1002E000012120209047206A401C20626D1EF6D517
:1002F00070BD09684A0501D540B27047C905FCD5F3
:1003000000B2704709684A0501D5C0B27047C905F7
:10031000FCD580B2704770B50C460546012A05D061
:100320002878800600D5EA69002302E0012305E071
:100330005B1C934202D2E05C0028F9D1A869E61860
:10034000C01AA861286A184428622846FFF7AAFF45
:1003500004E0D5E9012114F8010B9047B442F8D329
:100360002846FFF7B5FF70BD2DE9F0410646002491
:1003700010687529314616A510D0FFF7BAFF00287E
:1003800002DA404213A507E031688A0701D512A5B9
:1003900002E0490704D511A5012401E0FFF7B2FFEF
:1003A00000210A2206F1240709E0B0FBF2FCB0FBB1
:1003B000F2F302FB1C00303078541846491C002828
:1003C000F3D123462A463046BDE8F04100F058BA42
:1003D000000000002D0000002B00000020000000A5
:1003E0002DE9FF5F15468A460446DFF8AC80F844E5
:1003F0000027D8E900103E46CDE9001010E03AF899
:1004000016106A4602A800F0F1FA411C07D02178C4
:10041000890603D5E269391891420DD80744761C44
:100420002078800602D5E069B84205DDAE42E6DB01
:100430003AF816000028E2D1A069C01BA06120464E
:10044000FFF730FFD8E90010CDE90010002017E0D9
:100450003AF818106A4602A800F0C8FAB0F1FF3F57
:1004600081460BD000250DF1080B05E0D4E90121F0
:100470001BF8050090476D1C4D45F7D308F10100AE
:10048000B0428046E4DB206A384420622046FFF711
:100490001FFFBDE8FF9F00009E34000030B4002124
:1004A00000F1240408E002F00705D208303542EAE2
:1004B0004372DB086554491C52EA0305F3D1046812
:1004C000002310A2250708D504F020040C4304D013
:1004D000C46901230CA2641EC46130BC00F0D0B911
:1004E00010B5044621461068FFF70CFF024620466F
:1004F000BDE810400023D1E7D21D22F00701D1E969
:100500000023CBE70000000030000000F0B40D46EF
:100510000188090502D5214C7C4402E01F4C7C4433
:100520000E34002100F1240608E002F00F07120942
:10053000E75D42EA03721B097754491C52EA03073C
:10054000F3D102780023120704D5702D06D009B12B
:10055000022311342246F0BC00F092B9012310347A
:10056000F8E770B504460D4621461068FFF7CAFE4D
:10057000024629462046BDE870400023C6E7D21D4A
:1005800022F00703D3E90023C0E70368126843F0B1
:10059000200303600823C3610023B7E77C33000016
:1005A0002DE9F05F894604464FF0000ADFF874B188
:1005B000FB44C0F820A02046E1688847002874D09A
:1005C000252806D0D4E901219047206A401C2062EA
:1005D000F1E700265F462046E16888472028054667
:1005E00007DB312D05D2781910F8200C08B106432D
:1005F000F1E7B00701D526F00406C4F81CA00027D7
:10060000C4F818A02A2D09D0284602F023FC38B3DC
:1006100004EB8708303DC8F8185019E059F8041B5E
:10062000204604EB87029161E1688847012F054667
:1006300018D1E069002820DA26F020061DE0D8F85D
:10064000180000EB800005EB40003038C8F81800B7
:100650002046E1688847054602F0FCFB0028EED101
:10066000012F0AD02E2D08D12046E16888477F1C33
:100670000546022F46F02006C4DBA069002803DAF5
:10068000404246F00106A061F00701D026F01006B6
:100690006C2D0BD0682D09D04C2D39D06A2D35D05A
:1006A000742D35D07A2D33D016E038E0E1682F462E
:1006B00020468847B842054609D16C2F26D04FF412
:1006C0008060E168064320468847054604E06C2FB9
:1006D0001AD04FF4807006430DB3A5F141001928DC
:1006E00002D8203546F400664A4629462046266050
:1006F0004E46FFF757FD80B101280BD0F61D26F0BE
:10070000070000F1080956E74020E4E78020D8E719
:100710000020D6E706F104094DE7284652E7206A93
:10072000BDE8F09F0C33000030B505460B462A4665
:1007300013F8014B12F8010B08B1A042F8D01CB11C
:10074000002802D06D1CF1E7284630BD10B5431CCF
:1007500002E010F8011B71B18107FAD14FF00132AC
:1007600002C88C1A8C4314EAC211F9D0C01A0A06C6
:1007700003D0C01E10BDC01A10BD0A0401D0801ED7
:1007800010BD0902FCD0401E10BD032A40F230808B
:1007900010F0030C00F0158011F8013BBCF1020FC2
:1007A000624498BF11F801CB00F8013B38BF11F843
:1007B000013BA2F1040298BF00F801CB38BF00F85A
:1007C000013B11F0030300F02580083AC0F00880D7
:1007D00051F8043B083A51F804CBA0E80810F5E7BB
:1007E000121D5CBF51F8043B40F8043BAFF300809E
:1007F000D20724BF11F8013B11F801CB48BF11F813
:10080000012B24BF00F8013B00F801CB48BF00F8E2
:10081000012B704710B5203AC0F00B80B1E818509A
:10082000203AA0E81850B1E81850A0E81850BFF4DA
:10083000F5AF5FEA027C24BFB1E81850A0E8185079
:1008400044BF18C918C0BDE810405FEA827C24BFCD
:1008500051F8043B40F8043B08BF7047D20728BF5B
:1008600031F8023B48BF11F8012B28BF20F8023BAA
:1008700048BF00F8012B70477047704770477047BA
:100880002DE9F0470D4699469246044600F12408AA
:100890000168880604D5E06921F01001216000E0BC
:1008A0000120A84201DD471B00E00027A1697A1959
:1008B00002EB0900081AA0612078C00602D4204685
:1008C000FFF7F0FC002608E0D4E901211AF8060041
:1008D0009047206A401C761C20624E45F4DB20784D
:1008E000C0060AD52046FFF7DDFC06E0D4E9012169
:1008F00030209047206A401C2062381EA7F1010773
:10090000F4DC07E0D4E9012118F805009047206ADB
:10091000401C2062281EA5F10105F3DC2046FFF7EC
:10092000D7FC2078000602D50220BDE8F087012020
:10093000FBE7000001694A1C02610878704700B5B6
:100940008FB0CDE901310021059105497944CDE908
:10095000031011466846FFF723FE0FB000BD0000EC
:10096000E5FFFFFF0A6802F8010B0A60704710B547
:10097000436913B1AFF3008001E0FFF7CCFC012025
:1009800010BD127800F124010A7000224A70012281
:10099000EDE711684FF0FF32E9E70000074B70B553
:1009A0000D467B44FFF7CBFF0446284600F046F88F
:1009B00010B14FF0FF3070BD204670BD9F29000080
:1009C00010B5436913B1AFF3008001E0FFF708FDF4
:1009D000012010BD128800F1240182840022C2840B
:1009E0000122EDE711684FF0FF32E9E770B51646D6
:1009F0000C46054600F01AF8036893F80101012837
:100A000006D0FF2C0FD8185D68B101202C7070BD86
:100A1000D3F807013246214603F207130344284660
:100A2000BDE8704018474FF0FF3070BD10B500F0C2
:100A30002FF8001D10BD00BF2D2E0000007B00F020
:100A400080007047754600F031F8AE4605006946F3
:100A5000534620F00700854618B020B5FFF7ECFBA1
:100A6000BDE820404FF000064FF000074FF00008AF
:100A70004FF0000B21F00701AC46ACE8C009ACE830
:100A8000C009ACE8C009ACE8C0098D467047000059
:100A900000487047F811002010B50446AFF30080FD
:100AA0002046BDE81040FFF7B2BB00000048704789
:100AB000D81100204FF0013C50F8042B51F8043BB2
:100AC0009A4221D1A2EB0C03934313EACC1317D122
:100AD00050F8042B51F8043B9A4215D1A2EB0C03B9
:100AE000934313EACC130BD150F8042B51F8043B79
:100AF0009A4209D1A2EB0C03934313EACC13DBD047
:100B00004FF00000704700BFD01A01BAB1FA81F16E
:100B100001F0180122FA01F0CB40C1F12001DBB253
:100B2000C0B2C01A2CFA01F3D11A914311EAC311D1
:100B3000E6D1704710B500F0C7F831A0FFF790FB81
:100B40004FF4FA7002F0D8FB2DA0FFF789FB4FF4A9
:100B5000FA7002F0D1FB2CA12C48FFF7E5FD2C49DF
:100B600008600EE000F0B0F825A0FFF779FB4FF425
:100B7000FA7002F0C1FB24A12448FFF7D5FD2449F7
:100B80000860234800680028ECD022A0FFF768FB2B
:100B90004FF4FA7002F0B0FB00F096F81FA0FFF7D8
:100BA0005FFB4FF4FA7002F0A7FB1FA0FFF758FBA2
:100BB0004FF4FA7002F0A0FB1EA11448FFF7B4FD39
:100BC000134908600EE000F07FF817A0FFF748FB1C
:100BD0004FF4FA7002F090FB16A10C48FFF7A4FD49
:100BE0000B4908600A4800680028ECD000F06CF857
:100BF00014A0FFF735FB4FF4FA7002F07DFB10BD37
:100C000041540D0A000000004F4B00007007002007
:100C100018000020415445300D0A000041542B4378
:100C200053510D0A0000000041542B4350494E3FE0
:100C30000D0A00002B4350494E3A20524541445979
:100C40000000000041542B514D54434C4F53453D3F
:100C5000300D0A0000BFFEE710B50246002003E099
:100C600012F8014B231898B20B1EA1F10104A1B296
:100C7000F6D110BD10B50246002003E012F8014B7A
:100C8000231898B20B1EA1F10104A1B2F6D110BD38
:100C900010B50246002003E012F8014B231898B269
:100CA0000B1EA1F10104A1B2F6D110BD10B5024690
:100CB000002003E012F8014B231898B20B1EA1F19B
:100CC0000104A1B2F6D110BD10B5094802F0ACF88C
:100CD000002404E0002006490855601CC4B2642CBE
:100CE000F8DB00200349087000F0C2F910BD0000D5
:100CF000700700202A0000207047000010B5012076
:100D000000F01CF858B14021074800F0A3F9012079
:100D100002F062FA01224121044801F078FD01202D
:100D200000F006F810BD0000000C01400004004077
:100D3000014908607047000014040140014600208A
:100D40000022074B1B6803EA0102054B14331B68A2
:100D50000B4013B10AB1012000E0002070470000F1
:100D600000040140002123498279002A3AD00A4632
:100D7000126803689A430B461A600A1D12680368DA
:100D80009A430B1D1A60027911440A6803681A43DA
:100D90000A60184A0832126803689A43154B0833F0
:100DA0001A601A1D126803689A43124B0C331A60BA
:100DB0004279102A0ED11A1F126803681A430D4B8C
:100DC00008331A601A1D126803681A43094B0C3362
:100DD0001A600DE00749427911440A6803681A4312
:100DE0000A6005E0027911440A6803689A430A60C0
:100DF00070470000000401400EB500F027F8012103
:100E0000082001F0C9FA0120ADF8080004208DF88F
:100E10000B0002A90C4800F049F80121084601F036
:100E2000BBFA0021012000F021F8012000900020F1
:100E30008DF804000C208DF8050001208DF80600C7
:100E40006846FFF78FFF0EBD000C014008B5062075
:100E50008DF8000000208DF8010001208DF80200BF
:100E60008DF80300684601F033FA08BD30B5002262
:100E70008B071C0F0F2303FA04F20B4B8C1053F853
:100E800024309343084C8D1044F8253023468C10B1
:100E900053F824308C07240F00FA04F42343024C47
:100EA0008D1044F8253030BD080001402DE9F04197
:100EB000024600250026002000230024002791F888
:100EC00003C00CF00F0591F803C00CF0100CBCF13E
:100ED000000F03D091F802C04CEA050591F800C05C
:100EE000BCF1000F31D0146800202BE04FF0010C52
:100EF0000CFA00F3B1F800C00CEA03069E4220D1C0
:100F000083004FF00F0C0CFA03F7BC4305FA03FC07
:100F10004CEA040491F803C0BCF1280F06D14FF04D
:100F2000010C0CFA00FCC2F814C00AE091F803C0EE
:100F3000BCF1480F05D14FF0010C0CFA00FCC2F8CF
:100F400010C0401C0828D1D31460B1F800C0BCF117
:100F5000FF0F34DD546800202EE000F1080C4FF044
:100F6000010808FA0CF3B1F800C00CEA03069E422F
:100F700021D183004FF00F0C0CFA03F7BC4305FAA4
:100F800003FC4CEA040491F803C0BCF1280F05D11E
:100F900000F1080C08FA0CF8C2F8148091F803C0AC
:100FA000BCF1480F07D100F1080C4FF0010808FA16
:100FB0000CF8C2F81080401C0828CED35460BDE85D
:100FC000F0810000F0B50A4600230024002100252E
:100FD00000F00046B6F1004F02D11D4EF16901E06C
:100FE0001B4E7168C0F3034583B200F44016B6F59A
:100FF000401F08D121F07061154E766826F07066AA
:10100000134F7E6012E000F48016B6F5801F06D103
:10101000032606FA05F4A14341F0706106E0460D8F
:10102000360103FA06F6B14341F0706122B1460D74
:10103000360103FA06F6314300F00046B6F1004FE0
:1010400002D1034EF16101E0014E7160F0BD00007C
:1010500000000140416170470161704700BFFEE739
:101060004CF6CC4001490860704700000030004059
:1010700010B500F013F810BD70B505460C4645F2EA
:10108000555000F01FF8284600F010F8204600F0F8
:1010900013F800F003F8FFF7E3FF70BD4AF6AA204B
:1010A0000149086070470000003000400149486075
:1010B0007047000000300040014988607047000020
:1010C00000300040014908607047000000300040D7
:1010D00008B501210C2001F05FF94FF48070ADF8E4
:1010E000000010208DF8030003208DF802006946EF
:1010F0000948FFF7DBFE4FF480710748FFF7ACFFAC
:101100004020ADF8000069460448FFF7CFFE4021BB
:101110000248FFF79FFF08BD00080140000C014096
:1011200010B5FFF7D1FD49A0FFF79AF84FF4FA7018
:1011300002F0E2F849A14C48FFF7F6FA4B49086083
:10114000FFF796FF0EE0FFF7BFFD40A0FFF788F81E
:101150004FF4FA7002F0D0F840A14348FFF7E4FAE8
:1011600042490860414800680028ECD0FFF7ACFD18
:101170003F48FFF775F84FF4FA7002F0BDF83DA153
:101180003948FFF7D1FA3949086005E039A13648F6
:10119000FFF7CAFA35490860344800680028F5D0DE
:1011A000FFF792FD34A0FFF75BF84FF4FA7002F0FE
:1011B000A3F840A12C48FFF7B7FA2C49086009E0D2
:1011C0004FF4FA7002F098F83AA12748FFF7ACFA0A
:1011D00026490860254800680028F1D0FFF774FD13
:1011E00038A0FFF73DF84FF4FA7002F085F83BA104
:1011F0001D48FFF799FA1D49086005E037A11A4814
:10120000FFF792FA19490860184800680028F5D0DD
:10121000FFF75AFD35A0FFF723F84FF4FA7002F0FC
:101220006BF83EA11048FFF77FFA1049086005E00F
:101230003AA10D48FFF778FA0C4908600B4800689E
:101240000028F5D0FFF740FD10BD000041542B43AE
:101250004750414444523D310D0A00002B43475052
:10126000414444523A00000070070020180000205A
:10127000D43800084F4B000041542B514D544F506F
:10128000454E3D302C22696F742D61732D6D717444
:10129000742E636E2D7368616E676861692E616C70
:1012A0006979756E63732E636F6D222C3138383314
:1012B0000D0A00002B514D544F50454E3A20302C12
:1012C0003000000041542B514D54434F4E4E3D30A1
:1012D0002C2242433236220D0A0000002B514D547D
:1012E000434F4E4E3A20302C302C300041542B517D
:1012F0004D545355423D302C312C222F67746132AE
:1013000068437942435A522F424332362F757365F0
:10131000722F676574222C300D0A00002B514D543A
:101320005355423A20302C312C30000000BFFEE7EC
:1013300038B5002000900025002415494888032274
:10134000082100F0F5FE04461CB1214611A0FEF76D
:1013500087FF0F4948886B460222052100F088FA72
:1013600004465CB9BDF8001010A0FEF779FFBDF887
:101370000010C8B201F078FDFFF77AFE642001F09A
:10138000BBFF681CC5B2032D00D1002538BD00008D
:1013900038080020B2E2C1BFC4A3CABDC9E8D6C3A1
:1013A000204552524F523A25640D0A000D0AB5DA13
:1013B000D2BBBFE9BCA4B9E2C4A3BFE9BEE0C0EBA5
:1013C0003A2564206D6D0D0A0000000038B500203C
:1013D000009000250024194948880322082100F0C4
:1013E000D9FE04461CB1214615A0FEF739FF13496A
:1013F00048886B460222052100F06CFA04465CB96D
:10140000BDF8001014A0FEF72BFFFFF731FEBDF86A
:101410000010C8B201F096FD642001F06DFF681C59
:10142000C5B2032D08D100251348006808B9012072
:1014300000E000201049086038BD0000A00A00202C
:10144000B2E2C1BFC4A3CABDC9E8D6C32045525247
:101450004F523A25640D0A000D0AB5DAB6FEBFE90F
:10146000BCA4B9E2C4A3BFE9BEE0C0EB3A25642046
:101470006D6D0D0A00000000A001214238B500206A
:10148000009000250024154948880322082100F017
:10149000B3FE04461CB1214611A0FEF7E1FE0F4940
:1014A00048886B460222052100F046FA04465CB9E2
:1014B000BDF8001010A0FEF7D3FEFFF7D9FDBDF870
:1014C0000010C8B201F0ACFD642001F015FF681CEB
:1014D000C5B2032D00D1002538BD0000700F0020DB
:1014E000B2E2C1BFC4A3CABDC9E8D6C320455252A7
:1014F0004F523A25640D0A000D0AB5DAC8FDBFE95E
:10150000BCA4B9E2C4A3BFE9BEE0C0EB3A256420A5
:101510006D6D0D0A0000000038B500200090002518
:101520000024194948880322082100F097FE044648
:101530001CB1214615A0FEF793FE134948886B465F
:101540000222052100F02AFA04465CB9BDF8001019
:1015500014A0FEF785FEFFF78BFDBDF80010C8B2A2
:1015600001F0CCFD642001F0C7FE681CC5B2032D5C
:1015700008D100251348006808B9012000E00020C8
:101580001049086038BD0000080D0020B2E2C1BF5C
:10159000C4A3CABDC9E8D6C3204552524F523A250A
:1015A000640D0A000D0AB5DACBC4BFE9BCA4B9E2E8
:1015B000C4A3BFE9BEE0C0EB3A2564206D6D0D0AFF
:1015C00000000000A001214270B5CEB006460C46D6
:1015D0006C220A4933A8FFF71DF9224633A901A856
:1015E000FEF74AFE01A8FFF7B1F885B22A4601A925
:1015F0003046FFF7CAF8E8B24EB070BD6C3A00084A
:1016000070B5CEB006460C466C220A4933A8FFF7E7
:1016100001F9224633A901A8FEF72EFE01A8FFF723
:1016200095F885B22A4601A93046FFF7AEF8E8B230
:101630004EB070BD2839000870B5CEB006460C46D5
:101640006C220A4933A8FFF7E5F8224633A901A81E
:10165000FEF712FE01A8FFF779F885B22A4601A924
:101660003046FFF792F8E8B24EB070BD94390008EA
:1016700070B5CEB006460C466C220A4933A8FFF777
:10168000C9F8224633A901A8FEF7F6FD01A8FFF725
:101690005DF885B22A4601A93046FFF776F8E8B230
:1016A0004EB070BD003A000870B5CCB006460C468E
:1016B00068220A4932A8FFF7ADF8224632A96846E7
:1016C000FEF7DAFD6846FFF741F885B22A4669461B
:1016D0003046FFF75AF8E8B24CB070BDD83A00086F
:1016E00038B50020009000244FF4E13001F0CEFF27
:1016F0000A2001F001FE04E0C82001F0FDFD601C9D
:10170000C4B26B46022203214FF6FF7000F0B0F81E
:1017100008B10A2CF0DBBDF800000949488000241C
:1017200004E0C82001F0E8FD601CC4B20449488808
:1017300001220A2100F0FCFC08B1142CF1DB38BDB9
:101740003808002038B50020009000244FF4E13024
:1017500002F012F80A2001F0CFFD04E0C82001F0E9
:10176000CBFD601CC4B26B46022203214FF6FF7012
:1017700000F0B0F808B10A2CF0DBBDF80000094910
:101780004880002404E0C82001F0B6FD601CC4B20B
:101790000449488801220A2100F0FCFC08B1142CFD
:1017A000F1DB38BDA00A002038B5002000900024ED
:1017B0004FF4E13001F026FE0A2001F09DFD04E027
:1017C000C82001F099FD601CC4B26B4602220321BF
:1017D0004FF6FF7000F0B0F808B10A2CF0DBBDF84E
:1017E000000009494880002404E0C82001F084FD7D
:1017F000601CC4B20449488801220A2100F0FCFCA4
:1018000008B1142CF1DB38BD700F002038B5002072
:10181000009000244FF4E13001F06AFE0A2001F04C
:101820006BFD04E0C82001F067FD601CC4B26B468C
:10183000022203214FF6FF7000F0B0F808B1052C2A
:10184000F0DBBDF8000009494880002404E0C8200E
:1018500001F052FD601CC4B20449488801220A21EB
:1018600000F0FCFC08B1142CF1DB38BD080D0020A1
:101870002DE9F04704460D4616461F464FF0000975
:10188000C8465120124908700A20487020128870FA
:10189000CC70002008710846457186710721FFF75A
:1018A000DBF980464FEA18200949C87181F80880A1
:1018B000002081F85802A1F85A020921044801F0D9
:1018C00043FF384600F09CF881464846BDE8F08763
:1018D000440800202DE9F04704460D4616461F46F1
:1018E0004FF00009C8465120124908700A2048707C
:1018F00020128870CC7000200871084645718671EE
:101900000721FFF7B7F980464FEA18200949C87147
:1019100081F80880002081F85802A1F85A020921B4
:10192000044801F087FF384600F050F981464846E8
:10193000BDE8F087AC0A00202DE9F04704460D46CB
:1019400016461F464FF00009C8465120124908703C
:101950000A20487020128870CC7000200871084658
:10196000457186710721FFF7A1F980464FEA1820DB
:101970000949C87181F80880002081F85802A1F84F
:101980005A020921044801F09BFD384600F0EAFAAA
:1019900081464846BDE8F0877C0F00202DE9F047DE
:1019A00004460D4616461F464FF00009C846512012
:1019B000124908700A20487020128870CC700020EC
:1019C00008710846457186710721FFF761F9804665
:1019D0004FEA18200949C87181F80880002081F871
:1019E0005802A1F85A020921044801F0E5FD3846E1
:1019F00000F0D2F981464846BDE8F087140D00207A
:101A00002DE9FC5F804600250020019000248146DE
:101A1000824600260027834600900BE0012001F05B
:101A20006BFC681C85B241F28830854202D10120EE
:101A30000190BEE0634890F858020028EED061485B
:101A4000B0F85A72082F02DBB7F5877F02DD02205B
:101A50000190AEE0002500BF5B48405D552805D1F0
:101A60005948691C405C0A2800D109E0B81EA84208
:101A700002D0681C85B202E00320019099E0EBE7F8
:101A800000BF2C46381B1FFA80F9B9F1080F02DBA2
:101A9000B9F5877F02DD022001908AE04A48211DC6
:101AA00010F801A0BAF1000F3DD1E11D465C06F12E
:101AB0000A00484502DD032001907AE006F10802A1
:101AC00091B2414A1019FFF7C7F80090A0190930E8
:101AD0003D490A5CA0190830085C02EB00201FFA9F
:101AE00080FB009858451BD10846E11D405C012849
:101AF00005D13548491C405CA8F800000DE032488B
:101B0000E11D405C022808D12F48891C425C491E17
:101B1000405C02EB0020A8F800000020019047E0A4
:101B20000420019044E0BAF1010F17D126490819A9
:101B30000621FFF791F800902348E11D425CA11DAA
:101B4000405C02EB00201FFA80FB0098584502D150
:101B5000002001902CE00420019029E0BAF1FF0F51
:101B600024D11948A11C405CFF281CD11648E11C57
:101B7000405CFF2817D1144908190621FFF76CF8BB
:101B800000901148E11D425CA11D405C02EB002069
:101B90001FFA80FB0098584502D10520019007E00C
:101BA0000420019004E00320019001E00320019053
:101BB00000BF0020034981F85802A1F85A02019899
:101BC000BDE8FC9F44080020700900202DE9FC5F5F
:101BD0008046002500200190002481468246002690
:101BE0000027834600900BE0012001F085FB681C74
:101BF00085B241F28830854202D101200190BEE0D9
:101C0000634890F858020028EED06148B0F85A7244
:101C1000082F02DBB7F5877F02DD02200190AEE0DE
:101C2000002500BF5B48405D552805D15948691C17
:101C3000405C0A2800D109E0B81EA84202D0681C06
:101C400085B202E00320019099E0EBE700BF2C464B
:101C5000381B1FFA80F9B9F1080F02DBB9F5877F4D
:101C600002DD022001908AE04A48211D10F801A0FF
:101C7000BAF1000F3DD1E11D465C06F10A0048456E
:101C800002DD032001907AE006F1080291B2414A98
:101C90001019FEF7EFFF0090A01909303D490A5CCA
:101CA000A0190830085C02EB00201FFA80FB0098A6
:101CB00058451BD10846E11D405C012805D1354837
:101CC000491C405CA8F800000DE03248E11D405C72
:101CD000022808D12F48891C425C491E405C02EB57
:101CE0000020A8F800000020019047E004200190A7
:101CF00044E0BAF1010F17D1264908190621FEF771
:101D0000B9FF00902348E11D425CA11D405C02EB3D
:101D100000201FFA80FB0098584502D10020019056
:101D20002CE00420019029E0BAF1FF0F24D11948DA
:101D3000A11C405CFF281CD11648E11C405CFF2818
:101D400017D1144908190621FEF794FF0090114895
:101D5000E11D425CA11D405C02EB00201FFA80FBEC
:101D60000098584502D10520019007E00420019019
:101D700004E00320019001E00320019000BF002057
:101D8000034981F85802A1F85A020198BDE8FC9F66
:101D9000AC0A0020D80B00202DE9FC5F804600250E
:101DA00000200190002481468246002600278346B9
:101DB00000900BE0012001F09FFA681C85B241F20F
:101DC0008830854202D101200190BEE0634890F83E
:101DD00058020028EED06148B0F85A72082F02DB92
:101DE000B7F5877F02DD02200190AEE0002500BF3D
:101DF0005B48405D552805D15948691C405C0A285C
:101E000000D109E0B81EA84202D0681C85B202E0E9
:101E10000320019099E0EBE700BF2C46381B1FFA26
:101E200080F9B9F1080F02DBB9F5877F02DD0220E6
:101E300001908AE04A48211D10F801A0BAF1000F74
:101E40003DD1E11D465C06F10A00484502DD032054
:101E500001907AE006F1080291B2414A1019FEF7AA
:101E600017FF0090A01909303D490A5CA0190830FD
:101E7000085C02EB00201FFA80FB009858451BD13C
:101E80000846E11D405C012805D13548491C405CED
:101E9000A8F800000DE03248E11D405C022808D19E
:101EA0002F48891C425C491E405C02EB0020A8F8C8
:101EB00000000020019047E00420019044E0BAF1C6
:101EC000010F17D1264908190621FEF7E1FE0090FF
:101ED0002348E11D425CA11D405C02EB00201FFA7B
:101EE00080FB0098584502D1002001902CE004208E
:101EF000019029E0BAF1FF0F24D11948A11C405CE0
:101F0000FF281CD11648E11C405CFF2817D114495A
:101F100008190621FEF7BCFE00901148E11D425C45
:101F2000A11D405C02EB00201FFA80FB0098584581
:101F300002D10520019007E00420019004E0032075
:101F4000019001E00320019000BF0020034981F8C7
:101F50005802A1F85A020198BDE8FC9F140D002018
:101F6000400E00202DE9FC5F8046002500200190F6
:101F700000248146824600260027834600900BE01D
:101F8000012001F0B9F9681C85B241F28830854220
:101F900002D101200190BEE0634890F85802002869
:101FA000EED06148B0F85A72082F02DBB7F5877F90
:101FB00002DD02200190AEE0002500BF5B48405DDD
:101FC000552805D15948691C405C0A2800D109E010
:101FD000B81EA84202D0681C85B202E0032001901E
:101FE00099E0EBE700BF2C46381B1FFA80F9B9F1E6
:101FF000080F02DBB9F5877F02DD022001908AE03D
:102000004A48211D10F801A0BAF1000F3DD1E11D91
:10201000465C06F10A00484502DD032001907AE0A3
:1020200006F1080291B2414A1019FEF73FFE0090F6
:10203000A01909303D490A5CA0190830085C02EB80
:1020400000201FFA80FB009858451BD10846E11D6F
:10205000405C012805D13548491C405CA8F80000C7
:102060000DE03248E11D405C022808D12F48891C50
:10207000425C491E405C02EB0020A8F800000020F2
:10208000019047E00420019044E0BAF1010F17D11C
:10209000264908190621FEF709FE00902348E11D94
:1020A000425CA11D405C02EB00201FFA80FB0098FF
:1020B000584502D1002001902CE00420019029E035
:1020C000BAF1FF0F24D11948A11C405CFF281CD194
:1020D0001648E11C405CFF2817D114490819062155
:1020E000FEF7E4FD00901148E11D425CA11D405C3B
:1020F00002EB00201FFA80FB0098584502D1052012
:10210000019007E00420019004E00320019001E029
:102110000320019000BF0020034981F85802A1F874
:102120005A020198BDE8FC9F7C0F0020A8100020F7
:102130002DE9F04104460D4616464FF000080027F1
:102140005120134908700A20487020128870CC7002
:102150000120087108464571012088710846C67142
:102160000821FEF779FD0746380A094908724F72BF
:10217000002081F85802A1F85A020A21044801F00F
:10218000E3FA0020FFF73CFC80464046BDE8F081C2
:10219000440800202DE9F04104460D4616464FF054
:1021A000000800275120134908700A2048702012A7
:1021B0008870CC7001200871084645710120887133
:1021C0000846C6710821FEF755FD0746380A094939
:1021D00008724F72002081F85802A1F85A020A21B1
:1021E000044801F027FB0020FFF7F0FC8046404642
:1021F000BDE8F081AC0A00202DE9F04104460D460F
:1022000016464FF0000800275120134908700A2095
:10221000487020128870CC70012008710846457102
:10222000012088710846C6710821FEF73FFD074668
:10223000380A094908724F72002081F85802A1F843
:102240005A020A21044801F03BF90020FFF78AFEF8
:1022500080464046BDE8F0817C0F00202DE9F0412A
:1022600004460D4616464FF000080027512013493A
:1022700008700A20487020128870CC700120087104
:1022800008464571012088710846C6710821FEF78D
:10229000FFFC0746380A094908724F72002081F88E
:1022A0005802A1F85A020A21044801F085F90020D9
:1022B000FFF772FD80464046BDE8F081140D002016
:1022C000704710B54FF4A06000F03AF810BD000060
:1022D00070B5002100230F22C47804B3154C246884
:1022E00004F4E064C4F5E064210AC1F10403CA40C7
:1022F000447804FA03F184781440214309010E4C18
:102300000678A155047804F01F050124AC40057837
:102310006D11AD0005F1E025C5F8004109E0047834
:1023200004F01F050124AC40044D0678761145F8F1
:10233000264070BD0CED00E000E400E080E100E02C
:1023400002490143024A1160704700000000FA058B
:102350000CED00E07047000029B1064AD269024343
:10236000044BDA6104E0034AD2698243014BDA612B
:10237000704700000010024029B1064A126902436A
:10238000044B1A6104E0034A12698243014B1A614B
:10239000704700000010024029B1064A92690243CA
:1023A000044B9A6104E0034A92698243014B9A61AB
:1023B000704700000010024029B1064AD26802436B
:1023C000044BDA6004E0034AD2688243014BDA60CE
:1023D000704700000010024030B5002100220024A8
:1023E00000232D4D6D6805F00C0121B1042905D0A5
:1023F000082923D105E0294D056022E0274D05601D
:102400001FE0254D6D6805F47012234D6D6805F4CD
:102410008034022505EB92421CB9214D55430560DD
:102420000BE01D4D6D6805F400351DB11C4D554385
:10243000056002E0194D5543056002E0174D056047
:1024400000BF00BF144D6D6805F0F0010909154D7E
:102450006B5C0568DD4045600F4D6D6805F4E0611B
:10246000090A104D6B5C4568DD4085600A4D6D685A
:1024700005F46051C90A0B4D6B5C4568DD40C560D1
:10248000054D6D6805F44041890B074D6B5CC568CF
:10249000B5FBF3F5056130BD0010024000127A0073
:1024A00000093D002C0000203C000020704710B5C2
:1024B00000F002F810BD00000CB500200190009063
:1024C0003348006840F480303149086000BF30482C
:1024D000006800F4003000900198401C01900098C2
:1024E00018B90198B0F5A06FF1D12948006800F43F
:1024F000003010B10120009001E000200090009811
:10250000012843D12348006840F0100021490860A9
:102510000846006820F0030008600846006840F0A4
:10252000020008601A484068194948600846406837
:1025300048600846406840F480604860084640684B
:1025400020F47C1048600846406840F4E810486079
:102550000846006840F08070086000BF0C480068C2
:1025600000F000700028F9D00948406820F003000E
:10257000074948600846406840F00200486000BFD4
:102580000348406800F00C000828F9D10CBD000099
:102590000010024000200240042808D14FF0E02142
:1025A000096941F004014FF0E022116107E04FF0AA
:1025B000E021096921F004014FF0E0221161704728
:1025C0007047000010B51348006840F00100114941
:1025D000086008464068104908400E4948600846AF
:1025E00000680E4908400B4908600846006820F45E
:1025F000802008600846406820F4FE0048604FF4E0
:102600001F008860FFF753FF4FF000600449086027
:1026100010BD0000001002400000FFF8FFFFF6FEB2
:1026200008ED00E010B501210F4800F0DFF8D0B14F
:102630000E480068401C0D4908600846006848F6CE
:10264000B80188420BDD0A48006880F04000084964
:102650000860012000F0C0FD00200449086001214D
:10266000014800F0A5F810BD000400400000002063
:102670000C0C014030B585B005460C460121022006
:10268000FFF76AFE01210920FFF786FE01211948A4
:10269000FEF798FC2020ADF8100018208DF81300EC
:1026A00003208DF8120004A91348FEF7FFFBADF8D4
:1026B0000850ADF804400020ADF80A00ADF806005F
:1026C00001A90E4800F004F91D208DF80000022039
:1026D0008DF8010003208DF8020001208DF8030021
:1026E0006846FFF7F5FD0121044800F064F805B0E5
:1026F00030BD000000081A00000C0140000400403A
:1027000030B589B005460C4601210820FFF724FEAC
:1027100001210420FFF740FE0120ADF82000182021
:102720008DF8230003208DF8220008A91848FEF731
:10273000BDFBADF81850ADF814400020ADF81A00FC
:10274000ADF8160005A9134800F0C2F87020ADF8E6
:1027500004000120ADF806000020ADF80A00ADF835
:102760000C0001A90B4800F05BF80121094800F0BA
:102770002EF80821074800F09FF80121054800F0D5
:102780000BF80121034800F016F809B030BD000035
:1027900000080140000C004021B1028842F0800294
:1027A000028004E002884FF67F731A40028070476F
:1027B000CA430282704721B1028842F001020280BE
:1027C00004E002884FF6FE731A400280704731B170
:1027D000B0F8442042F40042A0F8442005E0B0F8EC
:1027E0004420C2F30E02A0F84420704730B50246E0
:1027F000002000230024158A05EA0103958905EAD3
:10280000010413B10CB1012000E0002030BD1AB169
:1028100083890B43838102E083898B4383817047E3
:1028200070B5002400220023058C4FF6FE7635405B
:102830000584028C8388048B4FF68F752C40B51E5F
:102840002C400D882C43751E2A400D892A434D8843
:102850002A43144DA8420BD0134DA84208D0134D63
:10286000A84205D0124DA84202D0124DA84213D161
:102870004FF6F7752A404D892A434FF6FB752A40DB
:102880008D882A434FF6FF652B404FF6FF552B40AE
:102890008D892B43CD892B4383800483CD88858606
:1028A000028470BD002C0140003401400040014012
:1028B00000440140004801400A460021018B4FF6C8
:1028C000F7731940114301837047818670470000F8
:1028D000002202881D4B98420ED01D4B98420BD00F
:1028E000B0F1804F08D01B4B984205D01A4B98424C
:1028F00002D01A4B984204D14FF68F731A404B887E
:102900001A43174B984207D0164B984204D04FF603
:10291000FF431A40CB881A4302808B8883850B883B
:1029200003850A4B98420BD0094B984208D00E4BB6
:10293000984205D00D4B984202D00D4B984201D1E0
:102940000B7A03860123838270470000002C01402C
:10295000003401400004004000080040000C00402A
:1029600000100040001400400040014000440140BD
:102970000048014010B540F225511F4800F092F97F
:1029800010B31D4800F04AFAC4B21C4890F858022F
:10299000D0B91A48B0F85A02B0F5957F0DDC174847
:1029A000B0F85A1200F5967044541448B0F85A0220
:1029B000401C1249A1F85A0206E000200F49A1F874
:1029C0005A02012081F8580240F224410A4800F0DE
:1029D00069F978B1084800F021FAC4B20748B0F8A4
:1029E0005A0238B1054890F8580218B90120034935
:1029F00081F8580210BD0000004C00407C0F002000
:102A000010B540F225511F4800F04CF910B31D4895
:102A100000F004FAC4B21C4890F85802D0B91A4821
:102A2000B0F85A02B0F5957F0DDC1748B0F85A128D
:102A300000F5967044541448B0F85A02401C1249EC
:102A4000A1F85A0206E000200F49A1F85A0201201D
:102A500081F8580240F224410A4800F023F978B185
:102A6000084800F0DBF9C4B20748B0F85A0238B1A0
:102A7000054890F8580218B90120034981F8580216
:102A800010BD000000500040140D002010B540F2B1
:102A900025510E4800F006F9B0B10C4800F0BEF91F
:102AA000C4B20A4800F0BAF9C1B209480278007805
:102AB000401C074B1870074881541846007863285B
:102AC00002DD00201946087010BD000000380140EA
:102AD0002A0000207007002010B540F225511F4841
:102AE00000F0E0F810B31D4800F098F9C4B21C489B
:102AF00090F85802D0B91A48B0F85A02B0F5957F4C
:102B00000DDC1748B0F85A1200F59670445414487A
:102B1000B0F85A02401C1249A1F85A0206E00020FF
:102B20000F49A1F85A02012081F8580240F22441CD
:102B30000A4800F0B7F878B1084800F06FF9C4B25D
:102B40000748B0F85A0238B1054890F8580218B949
:102B50000120034981F8580210BD000000440040E4
:102B60004408002010B540F225511F4800F09AF8A3
:102B700010B31D4800F052F9C4B21C4890F8580236
:102B8000D0B91A48B0F85A02B0F5957F0DDC174855
:102B9000B0F85A1200F5967044541448B0F85A022E
:102BA000401C1249A1F85A0206E000200F49A1F882
:102BB0005A02012081F8580240F224410A4800F0EC
:102BC00071F878B1084800F029F9C4B20748B0F8A4
:102BD0005A0238B1054890F8580218B90120034943
:102BE00081F8580210BD000000480040AC0A0020E7
:102BF00021B1828942F40052828104E082894DF63B
:102C0000FF731A408281704710B504462048844201
:102C100009D101218803FFF7CFFB00214FF4804049
:102C2000FFF7CAFB32E01B48844209D10121480466
:102C3000FFF7A2FB00214FF40030FFF79DFB25E0DA
:102C40001548844209D101218804FFF795FB002132
:102C50004FF48020FFF790FB18E01048844209D120
:102C60000121C804FFF788FB00214FF40020FFF783
:102C700083FB0BE00A48844208D101210805FFF7D5
:102C80007BFB00214FF48010FFF776FB10BD0000A6
:102C9000003801400044004000480040004C004023
:102CA0000050004070B5024600240023002500209B
:102CB00040F66A16B14200D100BFC1F3421501F0DF
:102CC0001F03012606FA03F3012D02D19689334032
:102CD00006E0022D02D1168A334001E0968A334085
:102CE0000C12012606FA04F41688344013B10CB114
:102CF000012000E0002070BDF0B50346002400264E
:102D00000025002040F66A17B94200D100BF1846DE
:102D1000C1F3421401F01F06012707FA06F5012C42
:102D200001D10C3004E0022C01D1103000E014304D
:102D30001AB107682F43076002E00768AF430760D6
:102D4000F0BD00002DE9F04786B005460E46002490
:102D5000A24600BFA1460027B08900B100BF2F46A0
:102D60002C8A4CF6FF700440F08804432C82AC8916
:102D70004EF6F3100440B088318908437189084346
:102D80000443AC81AC8A4FF6FF400440B089044351
:102D9000AC8201A8FFF720FB1F48874202D1DDF873
:102DA00010A001E0DDF80CA0A88900F4004040B1BB
:102DB0000AEBCA0000EB0A1031684900B0FBF1F8D9
:102DC00007E00AEBCA0000EB0A1031688900B0FB8B
:102DD000F1F86420B8FBF0F004012009642101FB44
:102DE0001089A88900F4004040B1322000EBC900EE
:102DF000B0FBF1F000F00700044308E0322000EBE4
:102E000009106421B0FBF1F000F00F0004432C81A5
:102E100006B0BDE8F0870000003801400146888810
:102E2000C0F30800704700000BE000BF07490988A5
:102E300001F040010029F9D00178044A121D1180E7
:102E4000401C01780029F0D1704700000038014093
:102E500000BFFEE730380A2801D201207047002069
:102E6000704700BF7047000030B5B3B004461AA1E8
:102E700026A0FDF7F5F94FF4967000F03DFA2146D3
:102E800001A8FEF7A1FB0546002001A9485525A091
:102E9000FDF7E6F900BF2448008800F04000002854
:102EA000F9D01A202049091D0880642000F024FA76
:102EB0001EA12248FDF738FC214908600846006839
:102EC00028B91AA11D48FDF72FFC1D490860FDF720
:102ED000FBFE33B030BD00002F7379732F67746130
:102EE0003268437942435A522F646D7874303031DE
:102EF0002F7468696E672F6576656E742F70726FB8
:102F000070657274792F706F7374000041542B5187
:102F10004D545055423D302C302C302C302C2573E4
:102F20000D0A000025730000003801402B514D545C
:102F30005055423A20302C302C30000070070020D1
:102F40001800002030B5B3B004461AA126A0FDF742
:102F500087F94FF4967000F0CFF9214601A8FEF7EB
:102F60004FFB0546002001A9485525A0FDF778F93B
:102F700000BF2448008800F040000028F9D01A2043
:102F80002049091D0880642000F0B6F91EA12248DE
:102F9000FDF7CAFB214908600846006828B91AA154
:102FA0001D48FDF7C1FB1D490860FDF78DFE33B0DC
:102FB00030BD00002F7379732F67746132684379D5
:102FC00042435A522F646D78743030312F746869DF
:102FD0006E672F6576656E742F70726F7065727490
:102FE000792F706F7374000041542B514D5450551C
:102FF000423D302C302C302C302C25730D0A000033
:1030000025730000003801402B514D545055423A71
:1030100020302C302C3000007007002018000020D9
:1030200030B5B3B004461AA126A0FDF719F94FF444
:10303000967000F061F9214601A8FEF7FDFA0546F9
:10304000002001A9485525A0FDF70AF900BF244832
:10305000008800F040000028F9D01A202049091DFE
:103060000880642000F048F91EA12248FDF75CFBAF
:10307000214908600846006828B91AA11D48FDF7D3
:1030800053FB1D490860FDF71FFE33B030BD000043
:103090002F7379732F6774613268437942435A52B0
:1030A0002F646D78743030312F7468696E672F65C6
:1030B00076656E742F70726F70657274792F706F91
:1030C0007374000041542B514D545055423D302CE7
:1030D000302C302C302C25730D0A00002573000095
:1030E000003801402B514D545055423A20302C307D
:1030F0002C300000700700201800002030B5B3B05D
:1031000004461AA126A0FDF7ABF84FF4967000F024
:10311000F3F8214601A8FEF7ABFA0546002001A905
:10312000485525A0FDF79CF800BF2448008800F012
:1031300040000028F9D01A202049091D0880642089
:1031400000F0DAF81EA12248FDF7EEFA21490860E6
:103150000846006828B91AA11D48FDF7E5FA1D497F
:103160000860FDF7B1FD33B030BD00002F737973F7
:103170002F6774613268437942435A522F646D78E5
:10318000743030312F7468696E672F6576656E74A0
:103190002F70726F70657274792F706F7374000086
:1031A00041542B514D545055423D302C302C302C35
:1031B000302C25730D0A00002573000000380140F3
:1031C0002B514D545055423A20302C302C300000B9
:1031D000700700201800002030B5B3B004461AA1D3
:1031E00026A0FDF73DF84FF4967000F085F82146D3
:1031F00001A8FEF759FA0546002001A9485525A067
:10320000FDF72EF800BF2448008800F04000002899
:10321000F9D01A202049091D0880642000F06CF8BC
:103220001EA12248FDF780FA21490860084600687F
:1032300028B91AA11D48FDF777FA1D490860FDF766
:1032400043FD33B030BD00002F7379732F67746175
:103250003268437942435A522F646D78743030316A
:103260002F7468696E672F6576656E742F70726F44
:1032700070657274792F706F7374000041542B5114
:103280004D545055423D302C302C302C302C257371
:103290000D0A000025730000003801402B514D54E9
:1032A0005055423A20302C302C300000700700205E
:1032B0001800002010B56FF00400FFF76DF90A4800
:1032C00000680A49B0FBF1F0094908700846007827
:1032D00000EB4001C1EBC0104FF6FF7101EAC000E6
:1032E0000449088010BD00000400002000127A008C
:1032F00020000020220000200146114A12884A4383
:103300004FF0E0235A6100229A611A46126942F096
:1033100001021A6100BF4FF0E022106900F00102C3
:103320001AB100F48032002AF5D04FF0E022126981
:1033300022F001024FF0E0231A6100229A617047E7
:103340002200002000BF054A128802F04002002A35
:10335000F9D0C2B2014B1B1D1A80704700380140E2
:10336000FEF7AFFFFFF7A6FFFDF7B2FE40212248B0
:10337000FDF772FE4FF480712048FDF76DFE4FF4AB
:10338000E13000F02FF9FEF7ABF9FEF7DBF9FEF7BD
:103390000BFAFEF73BFA40F271210720FDF76CFEB5
:1033A000FDF7C8FBFDF7BCFEB420FFF7A5FFFDF756
:1033B00023FD482140F2E730FFF75CF9482140F255
:1033C000E730FFF79DF94FF4FA710D48FFF77DFAEA
:1033D000FDF74EFE0FE0FDF7ABFFFDF749FEFDF7F1
:1033E000F5FFFDF745FEFEF749F8FDF741FEFEF754
:1033F00093F8FDF73DFEEEE7000C014000080140A8
:10340000000C00401CB5044601211020FEF7C4FF4B
:103410000121C804FEF7A0FF2548FFF7F5FB4FF494
:103420008060ADF8000003208DF8020018208DF8B0
:10343000030069461F48FDF739FD4FF40060ADF801
:10344000000048208DF8030069461A48FDF72EFD5C
:1034500019480460002018498880C8800881888144
:103460000C2048811248FFF76DFC01211048FFF73E
:10347000BFFB012240F225510D48FFF73DFC012220
:1034800040F224410A48FFF737FC34208DF804004D
:1034900003208DF805008DF8060001208DF8070047
:1034A00001A8FEF715FF0020044981F858021CBD51
:1034B000004C004000100140980600207C0F0020C6
:1034C00010B50246002000BF0CE000BF074B1B8870
:1034D00003F04003002BF9D0135C044C241D23801F
:1034E000431CD8B28842F0DB10BD0000004C004005
:1034F0001CB5044601211020FEF74EFF01212020BB
:10350000FEF74AFF01210805FEF726FF2548FFF7D1
:103510007BFB4FF48050ADF8000003208DF80200D3
:1035200018208DF8030069461F48FDF7BFFC0420F2
:10353000ADF8000048208DF8030069461B48FDF7F0
:10354000B5FC1B480460002019498880C8800881A8
:1035500088810C2048811348FFF7F4FB01211148B2
:10356000FFF746FB012240F225510E48FFF7C4FB4E
:10357000012240F224410B48FFF7BEFB35208DF8B5
:10358000040003208DF8050002208DF806000120BC
:103590008DF8070001A8FEF79BFE0020054981F881
:1035A00058021CBD005000400010014000140140B2
:1035B00098060020140D002010B50246002000BF20
:1035C0000BE000BF064B1B8803F04003002BF9D033
:1035D000135C034CA380431CD8B28842F1DB10BDBE
:1035E0000050004010B586B00446012144F20400AA
:1035F000FEF7D2FE2348FFF707FB4FF40070ADF84B
:10360000140003208DF8160018208DF8170005A966
:103610001D48FDF74BFC4FF48060ADF8140004200A
:103620008DF8170005A91848FDF740FC25208DF8F6
:10363000000003208DF801008DF8020001208DF8B4
:1036400003006846FEF744FE01940020ADF8080030
:10365000ADF80A00ADF80C00ADF810000C20ADF884
:103660000E0001A90748FFF76DFB012240F225512A
:103670000448FFF741FB01210248FFF7B9FA06B001
:1036800010BD000000380140000801401CB5044690
:1036900001210420FEF780FE01214804FEF75CFEB4
:1036A0002548FFF7B1FA0420ADF8000003208DF89B
:1036B000020018208DF8030069462048FDF7F6FB4C
:1036C0000820ADF8000048208DF8030069461B482B
:1036D000FDF7ECFB1A480460002019498880C88077
:1036E000088188810C2048811348FFF72BFB0121BA
:1036F0001148FFF77DFA012240F225510E48FFF7ED
:10370000FBFA012240F224410B48FFF7F5FA26208C
:103710008DF8040002208DF8050003208DF80600C6
:1037200001208DF8070001A8FEF7D2FD0020054911
:1037300081F858021CBD0000004400400008014010
:10374000980600204408002010B50246002000BF63
:103750000CE000BF074B1B8803F04003002BF9D09F
:10376000135C044C241D2380431CD8B28842F0DB38
:1037700010BD0000004400401CB504460121082093
:10378000FEF70AFE01218804FEF7E6FD2548FFF753
:103790003BFA4FF48060ADF8000003208DF8020082
:1037A00018208DF8030069461F48FDF77FFB4FF492
:1037B0000060ADF8000048208DF8030069461A4803
:1037C000FDF774FB19480460002018498880C88000
:1037D000088188810C2048811248FFF7B3FA012143
:1037E0001048FFF705FA012240F225510D48FFF776
:1037F00083FA012240F224410A48FFF77DFA27208C
:103800008DF8040003208DF805008DF806000120D6
:103810008DF8070001A8FEF75BFD0020044981F840
:1038200058021CBD00480040000C014098060020D2
:10383000AC0A002010B50246002000BF0CE000BF1B
:10384000074B1B8803F04003002BF9D0135C044C9A
:10385000241D2380431CD8B28842F0DB10BD000039
:103860000048004010B500290AD00878002807D089
:1038700005487844FDF71EF9002801D0002010BD4E
:103880000248784410BD0000EE020000E60200008D
:10389000000000000000000030313233343536378C
:1038A0003839414243444546403058003031323384
:1038B0003435363738396162636465664030780084
:1038C00004000008000000000000000200010000E9
:1038D0001000000041542B514D544346473D226196
:1038E0006C6961757468222C302C226774613268AF
:1038F000437942435A52222C22646D78743030311D
:10390000222C2235353134386335636662643031B8
:10391000663232313236653137633038653263387A
:10392000623531220D0A00007B226964223A22327C
:1039300036222C2276657273696F6E223A22312EFE
:1039400030222C22706172616D73223A7B224465B1
:103950007465637444697374616E636532223A7B83
:103960002276616C7565223A25647D7D2C226D6519
:1039700074686F64223A227468696E672E65766592
:103980006E742E70726F70657274792E706F7374AE
:10399000227D00007B226964223A223236222C22C8
:1039A00076657273696F6E223A22312E30222C2294
:1039B000706172616D73223A7B2244657465637431
:1039C00044697374616E636533223A7B2276616C5D
:1039D0007565223A25647D7D2C226D6574686F645F
:1039E000223A227468696E672E6576656E742E7051
:1039F000726F70657274792E706F7374227D00001F
:103A00007B226964223A223236222C227665727336
:103A1000696F6E223A22312E30222C22706172613F
:103A20006D73223A7B2244657465637444697374D0
:103A3000616E636534223A7B2276616C7565223A49
:103A400025647D7D2C226D6574686F64223A227432
:103A500068696E672E6576656E742E70726F70651C
:103A60007274792E706F7374227D00007B226964FA
:103A7000223A223236222C2276657273696F6E22C8
:103A80003A22312E30222C22706172616D73223AFB
:103A90007B2244657465637444697374616E636505
:103AA000223A7B2276616C7565223A25647D7D2CF5
:103AB000226D6574686F64223A227468696E672E9D
:103AC0006576656E742E70726F70657274792E7083
:103AD0006F7374227D0000007B226964223A2232D7
:103AE00036222C2276657273696F6E223A22312E4D
:103AF00030222C22706172616D73223A7B225275E2
:103B00006E6E696E675374617465223A7B227661CA
:103B10006C7565223A25647D7D2C226D6574686F15
:103B200064223A227468696E672E6576656E742E1B
:103B300070726F70657274792E706F7374227D006D
:103B4000703C000800000020400000006C010008EC
:103B5000B03C000840000020F81700008801000871
:103B60001001000043000000F8FFFFFF004040404C
:103B70004040404040404141414141404040404040
:103B800040404040404040404040404040050202EC
:103B900002020202020202020202020202202020AB
:103BA0002020202020202002020202020202909007
:103BB0009090909010101010101010101010101005
:103BC0001010101010101010020202020202888859
:103BD0008888888808080808080808080808080865
:103BE000080808080808080802020202400000004D
:103BF00000000000000000000000000000000000C5
:103C000000000000000000000000000000000000B4
:103C100000000000000000000000000000000000A4
:103C20000000000000000000000000000000000094
:103C30000000000000000000000000000000000084
:103C40000000000000000000000000000000000074
:103C50000000000000000000000000000000000064
:103C60000000000000000000000000000000000054
:103C70000000000000A24A04000000000000000054
:103C8000010203040607080900000000000000000C
:103C90000000000000000000000000000000000024
:103CA00001020304010203040607080902040608CE
:0400000508000131BD
:00000001FF
